{
	"data": {
		"bytecode": {
			"linkReferences": {},
			"object": "6080604052348015600e575f80fd5b5061011d8061001c5f395ff3fe6080604052348015600e575f80fd5b50600436106025575f3560e01c80624264c3146029575b5f80fd5b602f6043565b604051603a91906076565b60405180910390f35b5f8060ff90506001816054919060ba565b90508091505090565b5f60ff82169050919050565b607081605d565b82525050565b5f60208201905060875f8301846069565b92915050565b7f4e487b71000000000000000000000000000000000000000000000000000000005f52601160045260245ffd5b5f60c282605d565b915060cb83605d565b9250828201905060ff81111560e15760e0608d565b5b9291505056fea2646970667358221220b15b9f2a25d74d1151b3971db77e72511af362693fb2925d9293cd4d03c7853764736f6c634300081a0033",
			"opcodes": "PUSH1 0x80 PUSH1 0x40 MSTORE CALLVALUE DUP1 ISZERO PUSH1 0xE JUMPI PUSH0 DUP1 REVERT JUMPDEST POP PUSH2 0x11D DUP1 PUSH2 0x1C PUSH0 CODECOPY PUSH0 RETURN INVALID PUSH1 0x80 PUSH1 0x40 MSTORE CALLVALUE DUP1 ISZERO PUSH1 0xE JUMPI PUSH0 DUP1 REVERT JUMPDEST POP PUSH1 0x4 CALLDATASIZE LT PUSH1 0x25 JUMPI PUSH0 CALLDATALOAD PUSH1 0xE0 SHR DUP1 PUSH3 0x4264C3 EQ PUSH1 0x29 JUMPI JUMPDEST PUSH0 DUP1 REVERT JUMPDEST PUSH1 0x2F PUSH1 0x43 JUMP JUMPDEST PUSH1 0x40 MLOAD PUSH1 0x3A SWAP2 SWAP1 PUSH1 0x76 JUMP JUMPDEST PUSH1 0x40 MLOAD DUP1 SWAP2 SUB SWAP1 RETURN JUMPDEST PUSH0 DUP1 PUSH1 0xFF SWAP1 POP PUSH1 0x1 DUP2 PUSH1 0x54 SWAP2 SWAP1 PUSH1 0xBA JUMP JUMPDEST SWAP1 POP DUP1 SWAP2 POP POP SWAP1 JUMP JUMPDEST PUSH0 PUSH1 0xFF DUP3 AND SWAP1 POP SWAP2 SWAP1 POP JUMP JUMPDEST PUSH1 0x70 DUP2 PUSH1 0x5D JUMP JUMPDEST DUP3 MSTORE POP POP JUMP JUMPDEST PUSH0 PUSH1 0x20 DUP3 ADD SWAP1 POP PUSH1 0x87 PUSH0 DUP4 ADD DUP5 PUSH1 0x69 JUMP JUMPDEST SWAP3 SWAP2 POP POP JUMP JUMPDEST PUSH32 0x4E487B7100000000000000000000000000000000000000000000000000000000 PUSH0 MSTORE PUSH1 0x11 PUSH1 0x4 MSTORE PUSH1 0x24 PUSH0 REVERT JUMPDEST PUSH0 PUSH1 0xC2 DUP3 PUSH1 0x5D JUMP JUMPDEST SWAP2 POP PUSH1 0xCB DUP4 PUSH1 0x5D JUMP JUMPDEST SWAP3 POP DUP3 DUP3 ADD SWAP1 POP PUSH1 0xFF DUP2 GT ISZERO PUSH1 0xE1 JUMPI PUSH1 0xE0 PUSH1 0x8D JUMP JUMPDEST JUMPDEST SWAP3 SWAP2 POP POP JUMP INVALID LOG2 PUSH5 0x6970667358 0x22 SLT KECCAK256 0xB1 JUMPDEST SWAP16 0x2A 0x25 0xD7 0x4D GT MLOAD 0xB3 SWAP8 SAR 0xB7 PUSH31 0x72511AF362693FB2925D9293CD4D03C7853764736F6C634300081A00330000 "
		},
		"gasEstimates": {
			"creation": {
				"codeDepositCost": "57000",
				"executionCost": "103",
				"totalCost": "57103"
			},
			"external": {
				"overflow()": "infinite"
			}
		},
		"methodIdentifiers": {
			"overflow()": "004264c3"
		}
	},
	"abi": [
		{
			"inputs": [],
			"name": "overflow",
			"outputs": [
				{
					"internalType": "uint8",
					"name": "result",
					"type": "uint8"
				}
			],
			"stateMutability": "pure",
			"type": "function"
		}
	]
}