{
	"data": {
		"bytecode": {
			"linkReferences": {},
			"object": "6080604052348015600e575f80fd5b506103a78061001c5f395ff3fe608060405234801561000f575f80fd5b506004361061003f575f3560e01c806333c6c96d146100435780633ca7be541461005f5780639f7990d91461007b575b5f80fd5b61005d600480360381019061005891906101dc565b610097565b005b610079600480360381019061007491906101dc565b6100fd565b005b610095600480360381019061009091906101dc565b610150565b005b5f6002826100a59190610234565b5f0b146100e7576040517f08c379a00000000000000000000000000000000000000000000000000000000081526004016100de906102be565b60405180910390fd5b6004815f0b146100fa576100f96102dc565b5b50565b5f60028261010b9190610234565b5f0b1461014d576040517f08c379a0000000000000000000000000000000000000000000000000000000008152600401610144906102be565b60405180910390fd5b50565b5f60028261015e9190610234565b5f0b146101a0576040517f08c379a000000000000000000000000000000000000000000000000000000000815260040161019790610353565b60405180910390fd5b50565b5f80fd5b5f815f0b9050919050565b6101bb816101a7565b81146101c5575f80fd5b50565b5f813590506101d6816101b2565b92915050565b5f602082840312156101f1576101f06101a3565b5b5f6101fe848285016101c8565b91505092915050565b7f4e487b71000000000000000000000000000000000000000000000000000000005f52601260045260245ffd5b5f61023e826101a7565b9150610249836101a7565b92508261025957610258610207565b5b828207905092915050565b5f82825260208201905092915050565b7f6576656e206e756d6265722072657175697265640000000000000000000000005f82015250565b5f6102a8601483610264565b91506102b382610274565b602082019050919050565b5f6020820190508181035f8301526102d58161029c565b9050919050565b7f4e487b71000000000000000000000000000000000000000000000000000000005f52600160045260245ffd5b7f6576656e206e756d62657220726571756972652c7265766572742100000000005f82015250565b5f61033d601b83610264565b915061034882610309565b602082019050919050565b5f6020820190508181035f83015261036a81610331565b905091905056fea26469706673582212201df6b7f1493abe2c81ae55f503afe400767b54576092b0892f63f88048689fdc64736f6c634300081a0033",
			"opcodes": "PUSH1 0x80 PUSH1 0x40 MSTORE CALLVALUE DUP1 ISZERO PUSH1 0xE JUMPI PUSH0 DUP1 REVERT JUMPDEST POP PUSH2 0x3A7 DUP1 PUSH2 0x1C PUSH0 CODECOPY PUSH0 RETURN INVALID PUSH1 0x80 PUSH1 0x40 MSTORE CALLVALUE DUP1 ISZERO PUSH2 0xF JUMPI PUSH0 DUP1 REVERT JUMPDEST POP PUSH1 0x4 CALLDATASIZE LT PUSH2 0x3F JUMPI PUSH0 CALLDATALOAD PUSH1 0xE0 SHR DUP1 PUSH4 0x33C6C96D EQ PUSH2 0x43 JUMPI DUP1 PUSH4 0x3CA7BE54 EQ PUSH2 0x5F JUMPI DUP1 PUSH4 0x9F7990D9 EQ PUSH2 0x7B JUMPI JUMPDEST PUSH0 DUP1 REVERT JUMPDEST PUSH2 0x5D PUSH1 0x4 DUP1 CALLDATASIZE SUB DUP2 ADD SWAP1 PUSH2 0x58 SWAP2 SWAP1 PUSH2 0x1DC JUMP JUMPDEST PUSH2 0x97 JUMP JUMPDEST STOP JUMPDEST PUSH2 0x79 PUSH1 0x4 DUP1 CALLDATASIZE SUB DUP2 ADD SWAP1 PUSH2 0x74 SWAP2 SWAP1 PUSH2 0x1DC JUMP JUMPDEST PUSH2 0xFD JUMP JUMPDEST STOP JUMPDEST PUSH2 0x95 PUSH1 0x4 DUP1 CALLDATASIZE SUB DUP2 ADD SWAP1 PUSH2 0x90 SWAP2 SWAP1 PUSH2 0x1DC JUMP JUMPDEST PUSH2 0x150 JUMP JUMPDEST STOP JUMPDEST PUSH0 PUSH1 0x2 DUP3 PUSH2 0xA5 SWAP2 SWAP1 PUSH2 0x234 JUMP JUMPDEST PUSH0 SIGNEXTEND EQ PUSH2 0xE7 JUMPI PUSH1 0x40 MLOAD PUSH32 0x8C379A000000000000000000000000000000000000000000000000000000000 DUP2 MSTORE PUSH1 0x4 ADD PUSH2 0xDE SWAP1 PUSH2 0x2BE JUMP JUMPDEST PUSH1 0x40 MLOAD DUP1 SWAP2 SUB SWAP1 REVERT JUMPDEST PUSH1 0x4 DUP2 PUSH0 SIGNEXTEND EQ PUSH2 0xFA JUMPI PUSH2 0xF9 PUSH2 0x2DC JUMP JUMPDEST JUMPDEST POP JUMP JUMPDEST PUSH0 PUSH1 0x2 DUP3 PUSH2 0x10B SWAP2 SWAP1 PUSH2 0x234 JUMP JUMPDEST PUSH0 SIGNEXTEND EQ PUSH2 0x14D JUMPI PUSH1 0x40 MLOAD PUSH32 0x8C379A000000000000000000000000000000000000000000000000000000000 DUP2 MSTORE PUSH1 0x4 ADD PUSH2 0x144 SWAP1 PUSH2 0x2BE JUMP JUMPDEST PUSH1 0x40 MLOAD DUP1 SWAP2 SUB SWAP1 REVERT JUMPDEST POP JUMP JUMPDEST PUSH0 PUSH1 0x2 DUP3 PUSH2 0x15E SWAP2 SWAP1 PUSH2 0x234 JUMP JUMPDEST PUSH0 SIGNEXTEND EQ PUSH2 0x1A0 JUMPI PUSH1 0x40 MLOAD PUSH32 0x8C379A000000000000000000000000000000000000000000000000000000000 DUP2 MSTORE PUSH1 0x4 ADD PUSH2 0x197 SWAP1 PUSH2 0x353 JUMP JUMPDEST PUSH1 0x40 MLOAD DUP1 SWAP2 SUB SWAP1 REVERT JUMPDEST POP JUMP JUMPDEST PUSH0 DUP1 REVERT JUMPDEST PUSH0 DUP2 PUSH0 SIGNEXTEND SWAP1 POP SWAP2 SWAP1 POP JUMP JUMPDEST PUSH2 0x1BB DUP2 PUSH2 0x1A7 JUMP JUMPDEST DUP2 EQ PUSH2 0x1C5 JUMPI PUSH0 DUP1 REVERT JUMPDEST POP JUMP JUMPDEST PUSH0 DUP2 CALLDATALOAD SWAP1 POP PUSH2 0x1D6 DUP2 PUSH2 0x1B2 JUMP JUMPDEST SWAP3 SWAP2 POP POP JUMP JUMPDEST PUSH0 PUSH1 0x20 DUP3 DUP5 SUB SLT ISZERO PUSH2 0x1F1 JUMPI PUSH2 0x1F0 PUSH2 0x1A3 JUMP JUMPDEST JUMPDEST PUSH0 PUSH2 0x1FE DUP5 DUP3 DUP6 ADD PUSH2 0x1C8 JUMP JUMPDEST SWAP2 POP POP SWAP3 SWAP2 POP POP JUMP JUMPDEST PUSH32 0x4E487B7100000000000000000000000000000000000000000000000000000000 PUSH0 MSTORE PUSH1 0x12 PUSH1 0x4 MSTORE PUSH1 0x24 PUSH0 REVERT JUMPDEST PUSH0 PUSH2 0x23E DUP3 PUSH2 0x1A7 JUMP JUMPDEST SWAP2 POP PUSH2 0x249 DUP4 PUSH2 0x1A7 JUMP JUMPDEST SWAP3 POP DUP3 PUSH2 0x259 JUMPI PUSH2 0x258 PUSH2 0x207 JUMP JUMPDEST JUMPDEST DUP3 DUP3 SMOD SWAP1 POP SWAP3 SWAP2 POP POP JUMP JUMPDEST PUSH0 DUP3 DUP3 MSTORE PUSH1 0x20 DUP3 ADD SWAP1 POP SWAP3 SWAP2 POP POP JUMP JUMPDEST PUSH32 0x6576656E206E756D626572207265717569726564000000000000000000000000 PUSH0 DUP3 ADD MSTORE POP JUMP JUMPDEST PUSH0 PUSH2 0x2A8 PUSH1 0x14 DUP4 PUSH2 0x264 JUMP JUMPDEST SWAP2 POP PUSH2 0x2B3 DUP3 PUSH2 0x274 JUMP JUMPDEST PUSH1 0x20 DUP3 ADD SWAP1 POP SWAP2 SWAP1 POP JUMP JUMPDEST PUSH0 PUSH1 0x20 DUP3 ADD SWAP1 POP DUP2 DUP2 SUB PUSH0 DUP4 ADD MSTORE PUSH2 0x2D5 DUP2 PUSH2 0x29C JUMP JUMPDEST SWAP1 POP SWAP2 SWAP1 POP JUMP JUMPDEST PUSH32 0x4E487B7100000000000000000000000000000000000000000000000000000000 PUSH0 MSTORE PUSH1 0x1 PUSH1 0x4 MSTORE PUSH1 0x24 PUSH0 REVERT JUMPDEST PUSH32 0x6576656E206E756D62657220726571756972652C726576657274210000000000 PUSH0 DUP3 ADD MSTORE POP JUMP JUMPDEST PUSH0 PUSH2 0x33D PUSH1 0x1B DUP4 PUSH2 0x264 JUMP JUMPDEST SWAP2 POP PUSH2 0x348 DUP3 PUSH2 0x309 JUMP JUMPDEST PUSH1 0x20 DUP3 ADD SWAP1 POP SWAP2 SWAP1 POP JUMP JUMPDEST PUSH0 PUSH1 0x20 DUP3 ADD SWAP1 POP DUP2 DUP2 SUB PUSH0 DUP4 ADD MSTORE PUSH2 0x36A DUP2 PUSH2 0x331 JUMP JUMPDEST SWAP1 POP SWAP2 SWAP1 POP JUMP INVALID LOG2 PUSH5 0x6970667358 0x22 SLT KECCAK256 SAR 0xF6 0xB7 CALL BLOBHASH GASPRICE 0xBE 0x2C DUP2 0xAE SSTORE CREATE2 SUB 0xAF 0xE4 STOP PUSH23 0x7B54576092B0892F63F88048689FDC64736F6C63430008 BYTE STOP CALLER "
		},
		"gasEstimates": {
			"creation": {
				"codeDepositCost": "187000",
				"executionCost": "230",
				"totalCost": "187230"
			},
			"external": {
				"checkAssert(int8)": "infinite",
				"checkRequire(int8)": "infinite",
				"checkRevert(int8)": "infinite"
			}
		},
		"methodIdentifiers": {
			"checkAssert(int8)": "33c6c96d",
			"checkRequire(int8)": "3ca7be54",
			"checkRevert(int8)": "9f7990d9"
		}
	},
	"abi": [
		{
			"inputs": [
				{
					"internalType": "int8",
					"name": "amount",
					"type": "int8"
				}
			],
			"name": "checkAssert",
			"outputs": [],
			"stateMutability": "pure",
			"type": "function"
		},
		{
			"inputs": [
				{
					"internalType": "int8",
					"name": "amount",
					"type": "int8"
				}
			],
			"name": "checkRequire",
			"outputs": [],
			"stateMutability": "pure",
			"type": "function"
		},
		{
			"inputs": [
				{
					"internalType": "int8",
					"name": "amount",
					"type": "int8"
				}
			],
			"name": "checkRevert",
			"outputs": [],
			"stateMutability": "pure",
			"type": "function"
		}
	]
}