{
	"contracts/Error.sol": {
		"Account": {
			"abi": [
				{
					"inputs": [],
					"name": "MAX_UINT",
					"outputs": [
						{
							"internalType": "uint256",
							"name": "",
							"type": "uint256"
						}
					],
					"stateMutability": "view",
					"type": "function"
				},
				{
					"inputs": [],
					"name": "balance",
					"outputs": [
						{
							"internalType": "uint256",
							"name": "",
							"type": "uint256"
						}
					],
					"stateMutability": "view",
					"type": "function"
				},
				{
					"inputs": [
						{
							"internalType": "uint256",
							"name": "_amount",
							"type": "uint256"
						}
					],
					"name": "deposit",
					"outputs": [],
					"stateMutability": "nonpayable",
					"type": "function"
				},
				{
					"inputs": [
						{
							"internalType": "uint256",
							"name": "_amount",
							"type": "uint256"
						}
					],
					"name": "withdraw",
					"outputs": [],
					"stateMutability": "nonpayable",
					"type": "function"
				}
			],
			"devdoc": {
				"kind": "dev",
				"methods": {},
				"version": 1
			},
			"evm": {
				"assembly": "    /* \"contracts/Error.sol\":1790:2597  contract Account {... */\n  mstore(0x40, 0x80)\n  callvalue\n  dup1\n  iszero\n  tag_1\n  jumpi\n  0x00\n  dup1\n  revert\ntag_1:\n  pop\n  dataSize(sub_0)\n  dup1\n  dataOffset(sub_0)\n  0x00\n  codecopy\n  0x00\n  return\nstop\n\nsub_0: assembly {\n        /* \"contracts/Error.sol\":1790:2597  contract Account {... */\n      mstore(0x40, 0x80)\n      callvalue\n      dup1\n      iszero\n      tag_1\n      jumpi\n      0x00\n      dup1\n      revert\n    tag_1:\n      pop\n      jumpi(tag_2, lt(calldatasize, 0x04))\n      shr(0xe0, calldataload(0x00))\n      dup1\n      0x2e1a7d4d\n      eq\n      tag_3\n      jumpi\n      dup1\n      0xb69ef8a8\n      eq\n      tag_4\n      jumpi\n      dup1\n      0xb6b55f25\n      eq\n      tag_5\n      jumpi\n      dup1\n      0xe5b5019a\n      eq\n      tag_6\n      jumpi\n    tag_2:\n      0x00\n      dup1\n      revert\n        /* \"contracts/Error.sol\":2241:2595  function withdraw(uint256 _amount) public {... */\n    tag_3:\n      tag_7\n      0x04\n      dup1\n      calldatasize\n      sub\n      dup2\n      add\n      swap1\n      tag_8\n      swap2\n      swap1\n      tag_9\n      jump\t// in\n    tag_8:\n      tag_10\n      jump\t// in\n    tag_7:\n      stop\n        /* \"contracts/Error.sol\":1813:1835  uint256 public balance */\n    tag_4:\n      tag_11\n      tag_12\n      jump\t// in\n    tag_11:\n      mload(0x40)\n      tag_13\n      swap2\n      swap1\n      tag_14\n      jump\t// in\n    tag_13:\n      mload(0x40)\n      dup1\n      swap2\n      sub\n      swap1\n      return\n        /* \"contracts/Error.sol\":1895:2235  function deposit(uint256 _amount) public {... */\n    tag_5:\n      tag_15\n      0x04\n      dup1\n      calldatasize\n      sub\n      dup2\n      add\n      swap1\n      tag_16\n      swap2\n      swap1\n      tag_9\n      jump\t// in\n    tag_16:\n      tag_17\n      jump\t// in\n    tag_15:\n      stop\n        /* \"contracts/Error.sol\":1841:1888  uint256 public constant MAX_UINT = 2 ** 256 - 1 */\n    tag_6:\n      tag_18\n      tag_19\n      jump\t// in\n    tag_18:\n      mload(0x40)\n      tag_20\n      swap2\n      swap1\n      tag_14\n      jump\t// in\n    tag_20:\n      mload(0x40)\n      dup1\n      swap2\n      sub\n      swap1\n      return\n        /* \"contracts/Error.sol\":2241:2595  function withdraw(uint256 _amount) public {... */\n    tag_10:\n        /* \"contracts/Error.sol\":2293:2311  uint256 oldBalance */\n      0x00\n        /* \"contracts/Error.sol\":2314:2321  balance */\n      dup1\n      sload\n        /* \"contracts/Error.sol\":2293:2321  uint256 oldBalance = balance */\n      swap1\n      pop\n        /* \"contracts/Error.sol\":2421:2428  _amount */\n      dup2\n        /* \"contracts/Error.sol\":2410:2417  balance */\n      sload(0x00)\n        /* \"contracts/Error.sol\":2410:2428  balance >= _amount */\n      lt\n      iszero\n        /* \"contracts/Error.sol\":2402:2442  require(balance >= _amount, \"Underflow\") */\n      tag_22\n      jumpi\n      mload(0x40)\n      0x08c379a000000000000000000000000000000000000000000000000000000000\n      dup2\n      mstore\n      0x04\n      add\n      tag_23\n      swap1\n      tag_24\n      jump\t// in\n    tag_23:\n      mload(0x40)\n      dup1\n      swap2\n      sub\n      swap1\n      revert\n    tag_22:\n        /* \"contracts/Error.sol\":2467:2474  _amount */\n      dup2\n        /* \"contracts/Error.sol\":2457:2464  balance */\n      sload(0x00)\n        /* \"contracts/Error.sol\":2457:2474  balance < _amount */\n      lt\n        /* \"contracts/Error.sol\":2453:2520  if (balance < _amount) {... */\n      iszero\n      tag_25\n      jumpi\n        /* \"contracts/Error.sol\":2490:2509  revert(\"Underflow\") */\n      mload(0x40)\n      0x08c379a000000000000000000000000000000000000000000000000000000000\n      dup2\n      mstore\n      0x04\n      add\n      tag_26\n      swap1\n      tag_24\n      jump\t// in\n    tag_26:\n      mload(0x40)\n      dup1\n      swap2\n      sub\n      swap1\n      revert\n        /* \"contracts/Error.sol\":2453:2520  if (balance < _amount) {... */\n    tag_25:\n        /* \"contracts/Error.sol\":2541:2548  _amount */\n      dup2\n        /* \"contracts/Error.sol\":2530:2537  balance */\n      0x00\n      dup1\n        /* \"contracts/Error.sol\":2530:2548  balance -= _amount */\n      dup3\n      dup3\n      sload\n      tag_27\n      swap2\n      swap1\n      tag_28\n      jump\t// in\n    tag_27:\n      swap3\n      pop\n      pop\n      dup2\n      swap1\n      sstore\n      pop\n        /* \"contracts/Error.sol\":2577:2587  oldBalance */\n      dup1\n        /* \"contracts/Error.sol\":2566:2573  balance */\n      sload(0x00)\n        /* \"contracts/Error.sol\":2566:2587  balance <= oldBalance */\n      gt\n      iszero\n        /* \"contracts/Error.sol\":2559:2588  assert(balance <= oldBalance) */\n      tag_29\n      jumpi\n      tag_30\n      tag_31\n      jump\t// in\n    tag_30:\n    tag_29:\n        /* \"contracts/Error.sol\":2283:2595  {... */\n      pop\n        /* \"contracts/Error.sol\":2241:2595  function withdraw(uint256 _amount) public {... */\n      pop\n      jump\t// out\n        /* \"contracts/Error.sol\":1813:1835  uint256 public balance */\n    tag_12:\n      sload(0x00)\n      dup2\n      jump\t// out\n        /* \"contracts/Error.sol\":1895:2235  function deposit(uint256 _amount) public {... */\n    tag_17:\n        /* \"contracts/Error.sol\":1946:1964  uint256 oldBalance */\n      0x00\n        /* \"contracts/Error.sol\":1967:1974  balance */\n      dup1\n      sload\n        /* \"contracts/Error.sol\":1946:1974  uint256 oldBalance = balance */\n      swap1\n      pop\n        /* \"contracts/Error.sol\":1984:2002  uint256 newBalance */\n      0x00\n        /* \"contracts/Error.sol\":2015:2022  _amount */\n      dup3\n        /* \"contracts/Error.sol\":2005:2012  balance */\n      sload(0x00)\n        /* \"contracts/Error.sol\":2005:2022  balance + _amount */\n      tag_33\n      swap2\n      swap1\n      tag_34\n      jump\t// in\n    tag_33:\n        /* \"contracts/Error.sol\":1984:2022  uint256 newBalance = balance + _amount */\n      swap1\n      pop\n        /* \"contracts/Error.sol\":2134:2144  oldBalance */\n      dup2\n        /* \"contracts/Error.sol\":2120:2130  newBalance */\n      dup2\n        /* \"contracts/Error.sol\":2120:2144  newBalance >= oldBalance */\n      lt\n      iszero\n        /* \"contracts/Error.sol\":2112:2157  require(newBalance >= oldBalance, \"Overflow\") */\n      tag_35\n      jumpi\n      mload(0x40)\n      0x08c379a000000000000000000000000000000000000000000000000000000000\n      dup2\n      mstore\n      0x04\n      add\n      tag_36\n      swap1\n      tag_37\n      jump\t// in\n    tag_36:\n      mload(0x40)\n      dup1\n      swap2\n      sub\n      swap1\n      revert\n    tag_35:\n        /* \"contracts/Error.sol\":2178:2188  newBalance */\n      dup1\n        /* \"contracts/Error.sol\":2168:2175  balance */\n      0x00\n        /* \"contracts/Error.sol\":2168:2188  balance = newBalance */\n      dup2\n      swap1\n      sstore\n      pop\n        /* \"contracts/Error.sol\":2217:2227  oldBalance */\n      dup2\n        /* \"contracts/Error.sol\":2206:2213  balance */\n      sload(0x00)\n        /* \"contracts/Error.sol\":2206:2227  balance >= oldBalance */\n      lt\n      iszero\n        /* \"contracts/Error.sol\":2199:2228  assert(balance >= oldBalance) */\n      tag_38\n      jumpi\n      tag_39\n      tag_31\n      jump\t// in\n    tag_39:\n    tag_38:\n        /* \"contracts/Error.sol\":1936:2235  {... */\n      pop\n      pop\n        /* \"contracts/Error.sol\":1895:2235  function deposit(uint256 _amount) public {... */\n      pop\n      jump\t// out\n        /* \"contracts/Error.sol\":1841:1888  uint256 public constant MAX_UINT = 2 ** 256 - 1 */\n    tag_19:\n        /* \"contracts/Error.sol\":1876:1888  2 ** 256 - 1 */\n      0xffffffffffffffffffffffffffffffffffffffffffffffffffffffffffffffff\n        /* \"contracts/Error.sol\":1841:1888  uint256 public constant MAX_UINT = 2 ** 256 - 1 */\n      dup2\n      jump\t// out\n        /* \"#utility.yul\":88:205   */\n    tag_41:\n        /* \"#utility.yul\":197:198   */\n      0x00\n        /* \"#utility.yul\":194:195   */\n      dup1\n        /* \"#utility.yul\":187:199   */\n      revert\n        /* \"#utility.yul\":334:411   */\n    tag_43:\n        /* \"#utility.yul\":371:378   */\n      0x00\n        /* \"#utility.yul\":400:405   */\n      dup2\n        /* \"#utility.yul\":389:405   */\n      swap1\n      pop\n        /* \"#utility.yul\":334:411   */\n      swap2\n      swap1\n      pop\n      jump\t// out\n        /* \"#utility.yul\":417:539   */\n    tag_44:\n        /* \"#utility.yul\":490:514   */\n      tag_59\n        /* \"#utility.yul\":508:513   */\n      dup2\n        /* \"#utility.yul\":490:514   */\n      tag_43\n      jump\t// in\n    tag_59:\n        /* \"#utility.yul\":483:488   */\n      dup2\n        /* \"#utility.yul\":480:515   */\n      eq\n        /* \"#utility.yul\":470:533   */\n      tag_60\n      jumpi\n        /* \"#utility.yul\":529:530   */\n      0x00\n        /* \"#utility.yul\":526:527   */\n      dup1\n        /* \"#utility.yul\":519:531   */\n      revert\n        /* \"#utility.yul\":470:533   */\n    tag_60:\n        /* \"#utility.yul\":417:539   */\n      pop\n      jump\t// out\n        /* \"#utility.yul\":545:684   */\n    tag_45:\n        /* \"#utility.yul\":591:596   */\n      0x00\n        /* \"#utility.yul\":629:635   */\n      dup2\n        /* \"#utility.yul\":616:636   */\n      calldataload\n        /* \"#utility.yul\":607:636   */\n      swap1\n      pop\n        /* \"#utility.yul\":645:678   */\n      tag_62\n        /* \"#utility.yul\":672:677   */\n      dup2\n        /* \"#utility.yul\":645:678   */\n      tag_44\n      jump\t// in\n    tag_62:\n        /* \"#utility.yul\":545:684   */\n      swap3\n      swap2\n      pop\n      pop\n      jump\t// out\n        /* \"#utility.yul\":690:1019   */\n    tag_9:\n        /* \"#utility.yul\":749:755   */\n      0x00\n        /* \"#utility.yul\":798:800   */\n      0x20\n        /* \"#utility.yul\":786:795   */\n      dup3\n        /* \"#utility.yul\":777:784   */\n      dup5\n        /* \"#utility.yul\":773:796   */\n      sub\n        /* \"#utility.yul\":769:801   */\n      slt\n        /* \"#utility.yul\":766:885   */\n      iszero\n      tag_64\n      jumpi\n        /* \"#utility.yul\":804:883   */\n      tag_65\n      tag_41\n      jump\t// in\n    tag_65:\n        /* \"#utility.yul\":766:885   */\n    tag_64:\n        /* \"#utility.yul\":924:925   */\n      0x00\n        /* \"#utility.yul\":949:1002   */\n      tag_66\n        /* \"#utility.yul\":994:1001   */\n      dup5\n        /* \"#utility.yul\":985:991   */\n      dup3\n        /* \"#utility.yul\":974:983   */\n      dup6\n        /* \"#utility.yul\":970:992   */\n      add\n        /* \"#utility.yul\":949:1002   */\n      tag_45\n      jump\t// in\n    tag_66:\n        /* \"#utility.yul\":939:1002   */\n      swap2\n      pop\n        /* \"#utility.yul\":895:1012   */\n      pop\n        /* \"#utility.yul\":690:1019   */\n      swap3\n      swap2\n      pop\n      pop\n      jump\t// out\n        /* \"#utility.yul\":1025:1143   */\n    tag_46:\n        /* \"#utility.yul\":1112:1136   */\n      tag_68\n        /* \"#utility.yul\":1130:1135   */\n      dup2\n        /* \"#utility.yul\":1112:1136   */\n      tag_43\n      jump\t// in\n    tag_68:\n        /* \"#utility.yul\":1107:1110   */\n      dup3\n        /* \"#utility.yul\":1100:1137   */\n      mstore\n        /* \"#utility.yul\":1025:1143   */\n      pop\n      pop\n      jump\t// out\n        /* \"#utility.yul\":1149:1371   */\n    tag_14:\n        /* \"#utility.yul\":1242:1246   */\n      0x00\n        /* \"#utility.yul\":1280:1282   */\n      0x20\n        /* \"#utility.yul\":1269:1278   */\n      dup3\n        /* \"#utility.yul\":1265:1283   */\n      add\n        /* \"#utility.yul\":1257:1283   */\n      swap1\n      pop\n        /* \"#utility.yul\":1293:1364   */\n      tag_70\n        /* \"#utility.yul\":1361:1362   */\n      0x00\n        /* \"#utility.yul\":1350:1359   */\n      dup4\n        /* \"#utility.yul\":1346:1363   */\n      add\n        /* \"#utility.yul\":1337:1343   */\n      dup5\n        /* \"#utility.yul\":1293:1364   */\n      tag_46\n      jump\t// in\n    tag_70:\n        /* \"#utility.yul\":1149:1371   */\n      swap3\n      swap2\n      pop\n      pop\n      jump\t// out\n        /* \"#utility.yul\":1377:1546   */\n    tag_47:\n        /* \"#utility.yul\":1461:1472   */\n      0x00\n        /* \"#utility.yul\":1495:1501   */\n      dup3\n        /* \"#utility.yul\":1490:1493   */\n      dup3\n        /* \"#utility.yul\":1483:1502   */\n      mstore\n        /* \"#utility.yul\":1535:1539   */\n      0x20\n        /* \"#utility.yul\":1530:1533   */\n      dup3\n        /* \"#utility.yul\":1526:1540   */\n      add\n        /* \"#utility.yul\":1511:1540   */\n      swap1\n      pop\n        /* \"#utility.yul\":1377:1546   */\n      swap3\n      swap2\n      pop\n      pop\n      jump\t// out\n        /* \"#utility.yul\":1552:1711   */\n    tag_48:\n        /* \"#utility.yul\":1692:1703   */\n      0x556e646572666c6f770000000000000000000000000000000000000000000000\n        /* \"#utility.yul\":1688:1689   */\n      0x00\n        /* \"#utility.yul\":1680:1686   */\n      dup3\n        /* \"#utility.yul\":1676:1690   */\n      add\n        /* \"#utility.yul\":1669:1704   */\n      mstore\n        /* \"#utility.yul\":1552:1711   */\n      pop\n      jump\t// out\n        /* \"#utility.yul\":1717:2082   */\n    tag_49:\n        /* \"#utility.yul\":1859:1862   */\n      0x00\n        /* \"#utility.yul\":1880:1946   */\n      tag_74\n        /* \"#utility.yul\":1944:1945   */\n      0x09\n        /* \"#utility.yul\":1939:1942   */\n      dup4\n        /* \"#utility.yul\":1880:1946   */\n      tag_47\n      jump\t// in\n    tag_74:\n        /* \"#utility.yul\":1873:1946   */\n      swap2\n      pop\n        /* \"#utility.yul\":1955:2048   */\n      tag_75\n        /* \"#utility.yul\":2044:2047   */\n      dup3\n        /* \"#utility.yul\":1955:2048   */\n      tag_48\n      jump\t// in\n    tag_75:\n        /* \"#utility.yul\":2073:2075   */\n      0x20\n        /* \"#utility.yul\":2068:2071   */\n      dup3\n        /* \"#utility.yul\":2064:2076   */\n      add\n        /* \"#utility.yul\":2057:2076   */\n      swap1\n      pop\n        /* \"#utility.yul\":1717:2082   */\n      swap2\n      swap1\n      pop\n      jump\t// out\n        /* \"#utility.yul\":2088:2507   */\n    tag_24:\n        /* \"#utility.yul\":2254:2258   */\n      0x00\n        /* \"#utility.yul\":2292:2294   */\n      0x20\n        /* \"#utility.yul\":2281:2290   */\n      dup3\n        /* \"#utility.yul\":2277:2295   */\n      add\n        /* \"#utility.yul\":2269:2295   */\n      swap1\n      pop\n        /* \"#utility.yul\":2341:2350   */\n      dup2\n        /* \"#utility.yul\":2335:2339   */\n      dup2\n        /* \"#utility.yul\":2331:2351   */\n      sub\n        /* \"#utility.yul\":2327:2328   */\n      0x00\n        /* \"#utility.yul\":2316:2325   */\n      dup4\n        /* \"#utility.yul\":2312:2329   */\n      add\n        /* \"#utility.yul\":2305:2352   */\n      mstore\n        /* \"#utility.yul\":2369:2500   */\n      tag_77\n        /* \"#utility.yul\":2495:2499   */\n      dup2\n        /* \"#utility.yul\":2369:2500   */\n      tag_49\n      jump\t// in\n    tag_77:\n        /* \"#utility.yul\":2361:2500   */\n      swap1\n      pop\n        /* \"#utility.yul\":2088:2507   */\n      swap2\n      swap1\n      pop\n      jump\t// out\n        /* \"#utility.yul\":2513:2693   */\n    tag_50:\n        /* \"#utility.yul\":2561:2638   */\n      0x4e487b7100000000000000000000000000000000000000000000000000000000\n        /* \"#utility.yul\":2558:2559   */\n      0x00\n        /* \"#utility.yul\":2551:2639   */\n      mstore\n        /* \"#utility.yul\":2658:2662   */\n      0x11\n        /* \"#utility.yul\":2655:2656   */\n      0x04\n        /* \"#utility.yul\":2648:2663   */\n      mstore\n        /* \"#utility.yul\":2682:2686   */\n      0x24\n        /* \"#utility.yul\":2679:2680   */\n      0x00\n        /* \"#utility.yul\":2672:2687   */\n      revert\n        /* \"#utility.yul\":2699:2893   */\n    tag_28:\n        /* \"#utility.yul\":2739:2743   */\n      0x00\n        /* \"#utility.yul\":2759:2779   */\n      tag_80\n        /* \"#utility.yul\":2777:2778   */\n      dup3\n        /* \"#utility.yul\":2759:2779   */\n      tag_43\n      jump\t// in\n    tag_80:\n        /* \"#utility.yul\":2754:2779   */\n      swap2\n      pop\n        /* \"#utility.yul\":2793:2813   */\n      tag_81\n        /* \"#utility.yul\":2811:2812   */\n      dup4\n        /* \"#utility.yul\":2793:2813   */\n      tag_43\n      jump\t// in\n    tag_81:\n        /* \"#utility.yul\":2788:2813   */\n      swap3\n      pop\n        /* \"#utility.yul\":2837:2838   */\n      dup3\n        /* \"#utility.yul\":2834:2835   */\n      dup3\n        /* \"#utility.yul\":2830:2839   */\n      sub\n        /* \"#utility.yul\":2822:2839   */\n      swap1\n      pop\n        /* \"#utility.yul\":2861:2862   */\n      dup2\n        /* \"#utility.yul\":2855:2859   */\n      dup2\n        /* \"#utility.yul\":2852:2863   */\n      gt\n        /* \"#utility.yul\":2849:2886   */\n      iszero\n      tag_82\n      jumpi\n        /* \"#utility.yul\":2866:2884   */\n      tag_83\n      tag_50\n      jump\t// in\n    tag_83:\n        /* \"#utility.yul\":2849:2886   */\n    tag_82:\n        /* \"#utility.yul\":2699:2893   */\n      swap3\n      swap2\n      pop\n      pop\n      jump\t// out\n        /* \"#utility.yul\":2899:3079   */\n    tag_31:\n        /* \"#utility.yul\":2947:3024   */\n      0x4e487b7100000000000000000000000000000000000000000000000000000000\n        /* \"#utility.yul\":2944:2945   */\n      0x00\n        /* \"#utility.yul\":2937:3025   */\n      mstore\n        /* \"#utility.yul\":3044:3048   */\n      0x01\n        /* \"#utility.yul\":3041:3042   */\n      0x04\n        /* \"#utility.yul\":3034:3049   */\n      mstore\n        /* \"#utility.yul\":3068:3072   */\n      0x24\n        /* \"#utility.yul\":3065:3066   */\n      0x00\n        /* \"#utility.yul\":3058:3073   */\n      revert\n        /* \"#utility.yul\":3085:3276   */\n    tag_34:\n        /* \"#utility.yul\":3125:3128   */\n      0x00\n        /* \"#utility.yul\":3144:3164   */\n      tag_86\n        /* \"#utility.yul\":3162:3163   */\n      dup3\n        /* \"#utility.yul\":3144:3164   */\n      tag_43\n      jump\t// in\n    tag_86:\n        /* \"#utility.yul\":3139:3164   */\n      swap2\n      pop\n        /* \"#utility.yul\":3178:3198   */\n      tag_87\n        /* \"#utility.yul\":3196:3197   */\n      dup4\n        /* \"#utility.yul\":3178:3198   */\n      tag_43\n      jump\t// in\n    tag_87:\n        /* \"#utility.yul\":3173:3198   */\n      swap3\n      pop\n        /* \"#utility.yul\":3221:3222   */\n      dup3\n        /* \"#utility.yul\":3218:3219   */\n      dup3\n        /* \"#utility.yul\":3214:3223   */\n      add\n        /* \"#utility.yul\":3207:3223   */\n      swap1\n      pop\n        /* \"#utility.yul\":3242:3245   */\n      dup1\n        /* \"#utility.yul\":3239:3240   */\n      dup3\n        /* \"#utility.yul\":3236:3246   */\n      gt\n        /* \"#utility.yul\":3233:3269   */\n      iszero\n      tag_88\n      jumpi\n        /* \"#utility.yul\":3249:3267   */\n      tag_89\n      tag_50\n      jump\t// in\n    tag_89:\n        /* \"#utility.yul\":3233:3269   */\n    tag_88:\n        /* \"#utility.yul\":3085:3276   */\n      swap3\n      swap2\n      pop\n      pop\n      jump\t// out\n        /* \"#utility.yul\":3282:3440   */\n    tag_51:\n        /* \"#utility.yul\":3422:3432   */\n      0x4f766572666c6f77000000000000000000000000000000000000000000000000\n        /* \"#utility.yul\":3418:3419   */\n      0x00\n        /* \"#utility.yul\":3410:3416   */\n      dup3\n        /* \"#utility.yul\":3406:3420   */\n      add\n        /* \"#utility.yul\":3399:3433   */\n      mstore\n        /* \"#utility.yul\":3282:3440   */\n      pop\n      jump\t// out\n        /* \"#utility.yul\":3446:3811   */\n    tag_52:\n        /* \"#utility.yul\":3588:3591   */\n      0x00\n        /* \"#utility.yul\":3609:3675   */\n      tag_92\n        /* \"#utility.yul\":3673:3674   */\n      0x08\n        /* \"#utility.yul\":3668:3671   */\n      dup4\n        /* \"#utility.yul\":3609:3675   */\n      tag_47\n      jump\t// in\n    tag_92:\n        /* \"#utility.yul\":3602:3675   */\n      swap2\n      pop\n        /* \"#utility.yul\":3684:3777   */\n      tag_93\n        /* \"#utility.yul\":3773:3776   */\n      dup3\n        /* \"#utility.yul\":3684:3777   */\n      tag_51\n      jump\t// in\n    tag_93:\n        /* \"#utility.yul\":3802:3804   */\n      0x20\n        /* \"#utility.yul\":3797:3800   */\n      dup3\n        /* \"#utility.yul\":3793:3805   */\n      add\n        /* \"#utility.yul\":3786:3805   */\n      swap1\n      pop\n        /* \"#utility.yul\":3446:3811   */\n      swap2\n      swap1\n      pop\n      jump\t// out\n        /* \"#utility.yul\":3817:4236   */\n    tag_37:\n        /* \"#utility.yul\":3983:3987   */\n      0x00\n        /* \"#utility.yul\":4021:4023   */\n      0x20\n        /* \"#utility.yul\":4010:4019   */\n      dup3\n        /* \"#utility.yul\":4006:4024   */\n      add\n        /* \"#utility.yul\":3998:4024   */\n      swap1\n      pop\n        /* \"#utility.yul\":4070:4079   */\n      dup2\n        /* \"#utility.yul\":4064:4068   */\n      dup2\n        /* \"#utility.yul\":4060:4080   */\n      sub\n        /* \"#utility.yul\":4056:4057   */\n      0x00\n        /* \"#utility.yul\":4045:4054   */\n      dup4\n        /* \"#utility.yul\":4041:4058   */\n      add\n        /* \"#utility.yul\":4034:4081   */\n      mstore\n        /* \"#utility.yul\":4098:4229   */\n      tag_95\n        /* \"#utility.yul\":4224:4228   */\n      dup2\n        /* \"#utility.yul\":4098:4229   */\n      tag_52\n      jump\t// in\n    tag_95:\n        /* \"#utility.yul\":4090:4229   */\n      swap1\n      pop\n        /* \"#utility.yul\":3817:4236   */\n      swap2\n      swap1\n      pop\n      jump\t// out\n\n    auxdata: 0xa26469706673582212205a126fbd4ac6bc6a4003e96528be5838be5910f1a3c3514f3bccd9bdd3fdfc2a64736f6c634300081a0033\n}\n",
				"bytecode": {
					"linkReferences": {},
					"object": "6080604052348015600e575f80fd5b5061047a8061001c5f395ff3fe608060405234801561000f575f80fd5b506004361061004a575f3560e01c80632e1a7d4d1461004e578063b69ef8a81461006a578063b6b55f2514610088578063e5b5019a146100a4575b5f80fd5b61006860048036038101906100639190610251565b6100c2565b005b61007261017c565b60405161007f919061028b565b60405180910390f35b6100a2600480360381019061009d9190610251565b610181565b005b6100ac6101f6565b6040516100b9919061028b565b60405180910390f35b5f80549050815f54101561010b576040517f08c379a0000000000000000000000000000000000000000000000000000000008152600401610102906102fe565b60405180910390fd5b815f54101561014f576040517f08c379a0000000000000000000000000000000000000000000000000000000008152600401610146906102fe565b60405180910390fd5b815f8082825461015f9190610349565b92505081905550805f5411156101785761017761037c565b5b5050565b5f5481565b5f805490505f825f5461019491906103a9565b9050818110156101d9576040517f08c379a00000000000000000000000000000000000000000000000000000000081526004016101d090610426565b60405180910390fd5b805f81905550815f5410156101f1576101f061037c565b5b505050565b7fffffffffffffffffffffffffffffffffffffffffffffffffffffffffffffffff81565b5f80fd5b5f819050919050565b6102308161021e565b811461023a575f80fd5b50565b5f8135905061024b81610227565b92915050565b5f602082840312156102665761026561021a565b5b5f6102738482850161023d565b91505092915050565b6102858161021e565b82525050565b5f60208201905061029e5f83018461027c565b92915050565b5f82825260208201905092915050565b7f556e646572666c6f7700000000000000000000000000000000000000000000005f82015250565b5f6102e86009836102a4565b91506102f3826102b4565b602082019050919050565b5f6020820190508181035f830152610315816102dc565b9050919050565b7f4e487b71000000000000000000000000000000000000000000000000000000005f52601160045260245ffd5b5f6103538261021e565b915061035e8361021e565b92508282039050818111156103765761037561031c565b5b92915050565b7f4e487b71000000000000000000000000000000000000000000000000000000005f52600160045260245ffd5b5f6103b38261021e565b91506103be8361021e565b92508282019050808211156103d6576103d561031c565b5b92915050565b7f4f766572666c6f770000000000000000000000000000000000000000000000005f82015250565b5f6104106008836102a4565b915061041b826103dc565b602082019050919050565b5f6020820190508181035f83015261043d81610404565b905091905056fea26469706673582212205a126fbd4ac6bc6a4003e96528be5838be5910f1a3c3514f3bccd9bdd3fdfc2a64736f6c634300081a0033",
					"opcodes": "PUSH1 0x80 PUSH1 0x40 MSTORE CALLVALUE DUP1 ISZERO PUSH1 0xE JUMPI PUSH0 DUP1 REVERT JUMPDEST POP PUSH2 0x47A DUP1 PUSH2 0x1C PUSH0 CODECOPY PUSH0 RETURN INVALID PUSH1 0x80 PUSH1 0x40 MSTORE CALLVALUE DUP1 ISZERO PUSH2 0xF JUMPI PUSH0 DUP1 REVERT JUMPDEST POP PUSH1 0x4 CALLDATASIZE LT PUSH2 0x4A JUMPI PUSH0 CALLDATALOAD PUSH1 0xE0 SHR DUP1 PUSH4 0x2E1A7D4D EQ PUSH2 0x4E JUMPI DUP1 PUSH4 0xB69EF8A8 EQ PUSH2 0x6A JUMPI DUP1 PUSH4 0xB6B55F25 EQ PUSH2 0x88 JUMPI DUP1 PUSH4 0xE5B5019A EQ PUSH2 0xA4 JUMPI JUMPDEST PUSH0 DUP1 REVERT JUMPDEST PUSH2 0x68 PUSH1 0x4 DUP1 CALLDATASIZE SUB DUP2 ADD SWAP1 PUSH2 0x63 SWAP2 SWAP1 PUSH2 0x251 JUMP JUMPDEST PUSH2 0xC2 JUMP JUMPDEST STOP JUMPDEST PUSH2 0x72 PUSH2 0x17C JUMP JUMPDEST PUSH1 0x40 MLOAD PUSH2 0x7F SWAP2 SWAP1 PUSH2 0x28B JUMP JUMPDEST PUSH1 0x40 MLOAD DUP1 SWAP2 SUB SWAP1 RETURN JUMPDEST PUSH2 0xA2 PUSH1 0x4 DUP1 CALLDATASIZE SUB DUP2 ADD SWAP1 PUSH2 0x9D SWAP2 SWAP1 PUSH2 0x251 JUMP JUMPDEST PUSH2 0x181 JUMP JUMPDEST STOP JUMPDEST PUSH2 0xAC PUSH2 0x1F6 JUMP JUMPDEST PUSH1 0x40 MLOAD PUSH2 0xB9 SWAP2 SWAP1 PUSH2 0x28B JUMP JUMPDEST PUSH1 0x40 MLOAD DUP1 SWAP2 SUB SWAP1 RETURN JUMPDEST PUSH0 DUP1 SLOAD SWAP1 POP DUP2 PUSH0 SLOAD LT ISZERO PUSH2 0x10B JUMPI PUSH1 0x40 MLOAD PUSH32 0x8C379A000000000000000000000000000000000000000000000000000000000 DUP2 MSTORE PUSH1 0x4 ADD PUSH2 0x102 SWAP1 PUSH2 0x2FE JUMP JUMPDEST PUSH1 0x40 MLOAD DUP1 SWAP2 SUB SWAP1 REVERT JUMPDEST DUP2 PUSH0 SLOAD LT ISZERO PUSH2 0x14F JUMPI PUSH1 0x40 MLOAD PUSH32 0x8C379A000000000000000000000000000000000000000000000000000000000 DUP2 MSTORE PUSH1 0x4 ADD PUSH2 0x146 SWAP1 PUSH2 0x2FE JUMP JUMPDEST PUSH1 0x40 MLOAD DUP1 SWAP2 SUB SWAP1 REVERT JUMPDEST DUP2 PUSH0 DUP1 DUP3 DUP3 SLOAD PUSH2 0x15F SWAP2 SWAP1 PUSH2 0x349 JUMP JUMPDEST SWAP3 POP POP DUP2 SWAP1 SSTORE POP DUP1 PUSH0 SLOAD GT ISZERO PUSH2 0x178 JUMPI PUSH2 0x177 PUSH2 0x37C JUMP JUMPDEST JUMPDEST POP POP JUMP JUMPDEST PUSH0 SLOAD DUP2 JUMP JUMPDEST PUSH0 DUP1 SLOAD SWAP1 POP PUSH0 DUP3 PUSH0 SLOAD PUSH2 0x194 SWAP2 SWAP1 PUSH2 0x3A9 JUMP JUMPDEST SWAP1 POP DUP2 DUP2 LT ISZERO PUSH2 0x1D9 JUMPI PUSH1 0x40 MLOAD PUSH32 0x8C379A000000000000000000000000000000000000000000000000000000000 DUP2 MSTORE PUSH1 0x4 ADD PUSH2 0x1D0 SWAP1 PUSH2 0x426 JUMP JUMPDEST PUSH1 0x40 MLOAD DUP1 SWAP2 SUB SWAP1 REVERT JUMPDEST DUP1 PUSH0 DUP2 SWAP1 SSTORE POP DUP2 PUSH0 SLOAD LT ISZERO PUSH2 0x1F1 JUMPI PUSH2 0x1F0 PUSH2 0x37C JUMP JUMPDEST JUMPDEST POP POP POP JUMP JUMPDEST PUSH32 0xFFFFFFFFFFFFFFFFFFFFFFFFFFFFFFFFFFFFFFFFFFFFFFFFFFFFFFFFFFFFFFFF DUP2 JUMP JUMPDEST PUSH0 DUP1 REVERT JUMPDEST PUSH0 DUP2 SWAP1 POP SWAP2 SWAP1 POP JUMP JUMPDEST PUSH2 0x230 DUP2 PUSH2 0x21E JUMP JUMPDEST DUP2 EQ PUSH2 0x23A JUMPI PUSH0 DUP1 REVERT JUMPDEST POP JUMP JUMPDEST PUSH0 DUP2 CALLDATALOAD SWAP1 POP PUSH2 0x24B DUP2 PUSH2 0x227 JUMP JUMPDEST SWAP3 SWAP2 POP POP JUMP JUMPDEST PUSH0 PUSH1 0x20 DUP3 DUP5 SUB SLT ISZERO PUSH2 0x266 JUMPI PUSH2 0x265 PUSH2 0x21A JUMP JUMPDEST JUMPDEST PUSH0 PUSH2 0x273 DUP5 DUP3 DUP6 ADD PUSH2 0x23D JUMP JUMPDEST SWAP2 POP POP SWAP3 SWAP2 POP POP JUMP JUMPDEST PUSH2 0x285 DUP2 PUSH2 0x21E JUMP JUMPDEST DUP3 MSTORE POP POP JUMP JUMPDEST PUSH0 PUSH1 0x20 DUP3 ADD SWAP1 POP PUSH2 0x29E PUSH0 DUP4 ADD DUP5 PUSH2 0x27C JUMP JUMPDEST SWAP3 SWAP2 POP POP JUMP JUMPDEST PUSH0 DUP3 DUP3 MSTORE PUSH1 0x20 DUP3 ADD SWAP1 POP SWAP3 SWAP2 POP POP JUMP JUMPDEST PUSH32 0x556E646572666C6F770000000000000000000000000000000000000000000000 PUSH0 DUP3 ADD MSTORE POP JUMP JUMPDEST PUSH0 PUSH2 0x2E8 PUSH1 0x9 DUP4 PUSH2 0x2A4 JUMP JUMPDEST SWAP2 POP PUSH2 0x2F3 DUP3 PUSH2 0x2B4 JUMP JUMPDEST PUSH1 0x20 DUP3 ADD SWAP1 POP SWAP2 SWAP1 POP JUMP JUMPDEST PUSH0 PUSH1 0x20 DUP3 ADD SWAP1 POP DUP2 DUP2 SUB PUSH0 DUP4 ADD MSTORE PUSH2 0x315 DUP2 PUSH2 0x2DC JUMP JUMPDEST SWAP1 POP SWAP2 SWAP1 POP JUMP JUMPDEST PUSH32 0x4E487B7100000000000000000000000000000000000000000000000000000000 PUSH0 MSTORE PUSH1 0x11 PUSH1 0x4 MSTORE PUSH1 0x24 PUSH0 REVERT JUMPDEST PUSH0 PUSH2 0x353 DUP3 PUSH2 0x21E JUMP JUMPDEST SWAP2 POP PUSH2 0x35E DUP4 PUSH2 0x21E JUMP JUMPDEST SWAP3 POP DUP3 DUP3 SUB SWAP1 POP DUP2 DUP2 GT ISZERO PUSH2 0x376 JUMPI PUSH2 0x375 PUSH2 0x31C JUMP JUMPDEST JUMPDEST SWAP3 SWAP2 POP POP JUMP JUMPDEST PUSH32 0x4E487B7100000000000000000000000000000000000000000000000000000000 PUSH0 MSTORE PUSH1 0x1 PUSH1 0x4 MSTORE PUSH1 0x24 PUSH0 REVERT JUMPDEST PUSH0 PUSH2 0x3B3 DUP3 PUSH2 0x21E JUMP JUMPDEST SWAP2 POP PUSH2 0x3BE DUP4 PUSH2 0x21E JUMP JUMPDEST SWAP3 POP DUP3 DUP3 ADD SWAP1 POP DUP1 DUP3 GT ISZERO PUSH2 0x3D6 JUMPI PUSH2 0x3D5 PUSH2 0x31C JUMP JUMPDEST JUMPDEST SWAP3 SWAP2 POP POP JUMP JUMPDEST PUSH32 0x4F766572666C6F77000000000000000000000000000000000000000000000000 PUSH0 DUP3 ADD MSTORE POP JUMP JUMPDEST PUSH0 PUSH2 0x410 PUSH1 0x8 DUP4 PUSH2 0x2A4 JUMP JUMPDEST SWAP2 POP PUSH2 0x41B DUP3 PUSH2 0x3DC JUMP JUMPDEST PUSH1 0x20 DUP3 ADD SWAP1 POP SWAP2 SWAP1 POP JUMP JUMPDEST PUSH0 PUSH1 0x20 DUP3 ADD SWAP1 POP DUP2 DUP2 SUB PUSH0 DUP4 ADD MSTORE PUSH2 0x43D DUP2 PUSH2 0x404 JUMP JUMPDEST SWAP1 POP SWAP2 SWAP1 POP JUMP INVALID LOG2 PUSH5 0x6970667358 0x22 SLT KECCAK256 GAS SLT PUSH16 0xBD4AC6BC6A4003E96528BE5838BE5910 CALL LOG3 0xC3 MLOAD 0x4F EXTCODESIZE 0xCC 0xD9 0xBD 0xD3 REVERT 0xFC 0x2A PUSH5 0x736F6C6343 STOP ADDMOD BYTE STOP CALLER "
				},
				"gasEstimates": {
					"creation": {
						"codeDepositCost": "229200",
						"executionCost": "267",
						"totalCost": "229467"
					},
					"external": {
						"MAX_UINT()": "369",
						"balance()": "2424",
						"deposit(uint256)": "infinite",
						"withdraw(uint256)": "infinite"
					}
				},
				"methodIdentifiers": {
					"MAX_UINT()": "e5b5019a",
					"balance()": "b69ef8a8",
					"deposit(uint256)": "b6b55f25",
					"withdraw(uint256)": "2e1a7d4d"
				}
			},
			"storageLayout": {
				"storage": [
					{
						"astId": 75,
						"contract": "contracts/Error.sol:Account",
						"label": "balance",
						"offset": 0,
						"slot": "0",
						"type": "t_uint256"
					}
				],
				"types": {
					"t_uint256": {
						"encoding": "inplace",
						"label": "uint256",
						"numberOfBytes": "32"
					}
				}
			},
			"userdoc": {
				"kind": "user",
				"methods": {},
				"version": 1
			}
		}
	}
}