{
	"contracts/4_Mapping.sol": {
		"Mapping": {
			"abi": [
				{
					"inputs": [
						{
							"internalType": "address",
							"name": "_addr",
							"type": "address"
						},
						{
							"internalType": "int256",
							"name": "_value",
							"type": "int256"
						}
					],
					"name": "setMapping",
					"outputs": [],
					"stateMutability": "nonpayable",
					"type": "function"
				}
			],
			"devdoc": {
				"kind": "dev",
				"methods": {},
				"version": 1
			},
			"evm": {
				"assembly": "    /* \"contracts/4_Mapping.sol\":59:347  contract Mapping{... */\n  mstore(0x40, 0x80)\n  callvalue\n  dup1\n  iszero\n  tag_1\n  jumpi\n  0x00\n  dup1\n  revert\ntag_1:\n  pop\n  dataSize(sub_0)\n  dup1\n  dataOffset(sub_0)\n  0x00\n  codecopy\n  0x00\n  return\nstop\n\nsub_0: assembly {\n        /* \"contracts/4_Mapping.sol\":59:347  contract Mapping{... */\n      mstore(0x40, 0x80)\n      callvalue\n      dup1\n      iszero\n      tag_1\n      jumpi\n      0x00\n      dup1\n      revert\n    tag_1:\n      pop\n      jumpi(tag_2, lt(calldatasize, 0x04))\n      shr(0xe0, calldataload(0x00))\n      dup1\n      0xc2ca3bc1\n      eq\n      tag_3\n      jumpi\n    tag_2:\n      0x00\n      dup1\n      revert\n        /* \"contracts/4_Mapping.sol\":251:341  function setMapping(address _addr, int _value) public {... */\n    tag_3:\n      tag_4\n      0x04\n      dup1\n      calldatasize\n      sub\n      dup2\n      add\n      swap1\n      tag_5\n      swap2\n      swap1\n      tag_6\n      jump\t// in\n    tag_5:\n      tag_7\n      jump\t// in\n    tag_4:\n      stop\n    tag_7:\n        /* \"contracts/4_Mapping.sol\":328:334  _value */\n      dup1\n        /* \"contracts/4_Mapping.sol\":315:318  map */\n      0x00\n        /* \"contracts/4_Mapping.sol\":315:325  map[_addr] */\n      dup1\n        /* \"contracts/4_Mapping.sol\":319:324  _addr */\n      dup5\n        /* \"contracts/4_Mapping.sol\":315:325  map[_addr] */\n      0xffffffffffffffffffffffffffffffffffffffff\n      and\n      0xffffffffffffffffffffffffffffffffffffffff\n      and\n      dup2\n      mstore\n      0x20\n      add\n      swap1\n      dup2\n      mstore\n      0x20\n      add\n      0x00\n      keccak256\n        /* \"contracts/4_Mapping.sol\":315:334  map[_addr] = _value */\n      dup2\n      swap1\n      sstore\n      pop\n        /* \"contracts/4_Mapping.sol\":251:341  function setMapping(address _addr, int _value) public {... */\n      pop\n      pop\n      jump\t// out\n        /* \"#utility.yul\":88:205   */\n    tag_10:\n        /* \"#utility.yul\":197:198   */\n      0x00\n        /* \"#utility.yul\":194:195   */\n      dup1\n        /* \"#utility.yul\":187:199   */\n      revert\n        /* \"#utility.yul\":334:460   */\n    tag_12:\n        /* \"#utility.yul\":371:378   */\n      0x00\n        /* \"#utility.yul\":411:453   */\n      0xffffffffffffffffffffffffffffffffffffffff\n        /* \"#utility.yul\":404:409   */\n      dup3\n        /* \"#utility.yul\":400:454   */\n      and\n        /* \"#utility.yul\":389:454   */\n      swap1\n      pop\n        /* \"#utility.yul\":334:460   */\n      swap2\n      swap1\n      pop\n      jump\t// out\n        /* \"#utility.yul\":466:562   */\n    tag_13:\n        /* \"#utility.yul\":503:510   */\n      0x00\n        /* \"#utility.yul\":532:556   */\n      tag_25\n        /* \"#utility.yul\":550:555   */\n      dup3\n        /* \"#utility.yul\":532:556   */\n      tag_12\n      jump\t// in\n    tag_25:\n        /* \"#utility.yul\":521:556   */\n      swap1\n      pop\n        /* \"#utility.yul\":466:562   */\n      swap2\n      swap1\n      pop\n      jump\t// out\n        /* \"#utility.yul\":568:690   */\n    tag_14:\n        /* \"#utility.yul\":641:665   */\n      tag_27\n        /* \"#utility.yul\":659:664   */\n      dup2\n        /* \"#utility.yul\":641:665   */\n      tag_13\n      jump\t// in\n    tag_27:\n        /* \"#utility.yul\":634:639   */\n      dup2\n        /* \"#utility.yul\":631:666   */\n      eq\n        /* \"#utility.yul\":621:684   */\n      tag_28\n      jumpi\n        /* \"#utility.yul\":680:681   */\n      0x00\n        /* \"#utility.yul\":677:678   */\n      dup1\n        /* \"#utility.yul\":670:682   */\n      revert\n        /* \"#utility.yul\":621:684   */\n    tag_28:\n        /* \"#utility.yul\":568:690   */\n      pop\n      jump\t// out\n        /* \"#utility.yul\":696:835   */\n    tag_15:\n        /* \"#utility.yul\":742:747   */\n      0x00\n        /* \"#utility.yul\":780:786   */\n      dup2\n        /* \"#utility.yul\":767:787   */\n      calldataload\n        /* \"#utility.yul\":758:787   */\n      swap1\n      pop\n        /* \"#utility.yul\":796:829   */\n      tag_30\n        /* \"#utility.yul\":823:828   */\n      dup2\n        /* \"#utility.yul\":796:829   */\n      tag_14\n      jump\t// in\n    tag_30:\n        /* \"#utility.yul\":696:835   */\n      swap3\n      swap2\n      pop\n      pop\n      jump\t// out\n        /* \"#utility.yul\":841:917   */\n    tag_16:\n        /* \"#utility.yul\":877:884   */\n      0x00\n        /* \"#utility.yul\":906:911   */\n      dup2\n        /* \"#utility.yul\":895:911   */\n      swap1\n      pop\n        /* \"#utility.yul\":841:917   */\n      swap2\n      swap1\n      pop\n      jump\t// out\n        /* \"#utility.yul\":923:1043   */\n    tag_17:\n        /* \"#utility.yul\":995:1018   */\n      tag_33\n        /* \"#utility.yul\":1012:1017   */\n      dup2\n        /* \"#utility.yul\":995:1018   */\n      tag_16\n      jump\t// in\n    tag_33:\n        /* \"#utility.yul\":988:993   */\n      dup2\n        /* \"#utility.yul\":985:1019   */\n      eq\n        /* \"#utility.yul\":975:1037   */\n      tag_34\n      jumpi\n        /* \"#utility.yul\":1033:1034   */\n      0x00\n        /* \"#utility.yul\":1030:1031   */\n      dup1\n        /* \"#utility.yul\":1023:1035   */\n      revert\n        /* \"#utility.yul\":975:1037   */\n    tag_34:\n        /* \"#utility.yul\":923:1043   */\n      pop\n      jump\t// out\n        /* \"#utility.yul\":1049:1186   */\n    tag_18:\n        /* \"#utility.yul\":1094:1099   */\n      0x00\n        /* \"#utility.yul\":1132:1138   */\n      dup2\n        /* \"#utility.yul\":1119:1139   */\n      calldataload\n        /* \"#utility.yul\":1110:1139   */\n      swap1\n      pop\n        /* \"#utility.yul\":1148:1180   */\n      tag_36\n        /* \"#utility.yul\":1174:1179   */\n      dup2\n        /* \"#utility.yul\":1148:1180   */\n      tag_17\n      jump\t// in\n    tag_36:\n        /* \"#utility.yul\":1049:1186   */\n      swap3\n      swap2\n      pop\n      pop\n      jump\t// out\n        /* \"#utility.yul\":1192:1664   */\n    tag_6:\n        /* \"#utility.yul\":1259:1265   */\n      0x00\n        /* \"#utility.yul\":1267:1273   */\n      dup1\n        /* \"#utility.yul\":1316:1318   */\n      0x40\n        /* \"#utility.yul\":1304:1313   */\n      dup4\n        /* \"#utility.yul\":1295:1302   */\n      dup6\n        /* \"#utility.yul\":1291:1314   */\n      sub\n        /* \"#utility.yul\":1287:1319   */\n      slt\n        /* \"#utility.yul\":1284:1403   */\n      iszero\n      tag_38\n      jumpi\n        /* \"#utility.yul\":1322:1401   */\n      tag_39\n      tag_10\n      jump\t// in\n    tag_39:\n        /* \"#utility.yul\":1284:1403   */\n    tag_38:\n        /* \"#utility.yul\":1442:1443   */\n      0x00\n        /* \"#utility.yul\":1467:1520   */\n      tag_40\n        /* \"#utility.yul\":1512:1519   */\n      dup6\n        /* \"#utility.yul\":1503:1509   */\n      dup3\n        /* \"#utility.yul\":1492:1501   */\n      dup7\n        /* \"#utility.yul\":1488:1510   */\n      add\n        /* \"#utility.yul\":1467:1520   */\n      tag_15\n      jump\t// in\n    tag_40:\n        /* \"#utility.yul\":1457:1520   */\n      swap3\n      pop\n        /* \"#utility.yul\":1413:1530   */\n      pop\n        /* \"#utility.yul\":1569:1571   */\n      0x20\n        /* \"#utility.yul\":1595:1647   */\n      tag_41\n        /* \"#utility.yul\":1639:1646   */\n      dup6\n        /* \"#utility.yul\":1630:1636   */\n      dup3\n        /* \"#utility.yul\":1619:1628   */\n      dup7\n        /* \"#utility.yul\":1615:1637   */\n      add\n        /* \"#utility.yul\":1595:1647   */\n      tag_18\n      jump\t// in\n    tag_41:\n        /* \"#utility.yul\":1585:1647   */\n      swap2\n      pop\n        /* \"#utility.yul\":1540:1657   */\n      pop\n        /* \"#utility.yul\":1192:1664   */\n      swap3\n      pop\n      swap3\n      swap1\n      pop\n      jump\t// out\n\n    auxdata: 0xa26469706673582212204a94fac050c54465dffa5938c1046e45408b24010ab359bdd2fe71a8bd7a5b9164736f6c634300081a0033\n}\n",
				"bytecode": {
					"linkReferences": {},
					"object": "6080604052348015600e575f80fd5b506101938061001c5f395ff3fe608060405234801561000f575f80fd5b5060043610610029575f3560e01c8063c2ca3bc11461002d575b5f80fd5b6100476004803603810190610042919061011f565b610049565b005b805f808473ffffffffffffffffffffffffffffffffffffffff1673ffffffffffffffffffffffffffffffffffffffff1681526020019081526020015f20819055505050565b5f80fd5b5f73ffffffffffffffffffffffffffffffffffffffff82169050919050565b5f6100bb82610092565b9050919050565b6100cb816100b1565b81146100d5575f80fd5b50565b5f813590506100e6816100c2565b92915050565b5f819050919050565b6100fe816100ec565b8114610108575f80fd5b50565b5f81359050610119816100f5565b92915050565b5f80604083850312156101355761013461008e565b5b5f610142858286016100d8565b92505060206101538582860161010b565b915050925092905056fea26469706673582212204a94fac050c54465dffa5938c1046e45408b24010ab359bdd2fe71a8bd7a5b9164736f6c634300081a0033",
					"opcodes": "PUSH1 0x80 PUSH1 0x40 MSTORE CALLVALUE DUP1 ISZERO PUSH1 0xE JUMPI PUSH0 DUP1 REVERT JUMPDEST POP PUSH2 0x193 DUP1 PUSH2 0x1C PUSH0 CODECOPY PUSH0 RETURN INVALID PUSH1 0x80 PUSH1 0x40 MSTORE CALLVALUE DUP1 ISZERO PUSH2 0xF JUMPI PUSH0 DUP1 REVERT JUMPDEST POP PUSH1 0x4 CALLDATASIZE LT PUSH2 0x29 JUMPI PUSH0 CALLDATALOAD PUSH1 0xE0 SHR DUP1 PUSH4 0xC2CA3BC1 EQ PUSH2 0x2D JUMPI JUMPDEST PUSH0 DUP1 REVERT JUMPDEST PUSH2 0x47 PUSH1 0x4 DUP1 CALLDATASIZE SUB DUP2 ADD SWAP1 PUSH2 0x42 SWAP2 SWAP1 PUSH2 0x11F JUMP JUMPDEST PUSH2 0x49 JUMP JUMPDEST STOP JUMPDEST DUP1 PUSH0 DUP1 DUP5 PUSH20 0xFFFFFFFFFFFFFFFFFFFFFFFFFFFFFFFFFFFFFFFF AND PUSH20 0xFFFFFFFFFFFFFFFFFFFFFFFFFFFFFFFFFFFFFFFF AND DUP2 MSTORE PUSH1 0x20 ADD SWAP1 DUP2 MSTORE PUSH1 0x20 ADD PUSH0 KECCAK256 DUP2 SWAP1 SSTORE POP POP POP JUMP JUMPDEST PUSH0 DUP1 REVERT JUMPDEST PUSH0 PUSH20 0xFFFFFFFFFFFFFFFFFFFFFFFFFFFFFFFFFFFFFFFF DUP3 AND SWAP1 POP SWAP2 SWAP1 POP JUMP JUMPDEST PUSH0 PUSH2 0xBB DUP3 PUSH2 0x92 JUMP JUMPDEST SWAP1 POP SWAP2 SWAP1 POP JUMP JUMPDEST PUSH2 0xCB DUP2 PUSH2 0xB1 JUMP JUMPDEST DUP2 EQ PUSH2 0xD5 JUMPI PUSH0 DUP1 REVERT JUMPDEST POP JUMP JUMPDEST PUSH0 DUP2 CALLDATALOAD SWAP1 POP PUSH2 0xE6 DUP2 PUSH2 0xC2 JUMP JUMPDEST SWAP3 SWAP2 POP POP JUMP JUMPDEST PUSH0 DUP2 SWAP1 POP SWAP2 SWAP1 POP JUMP JUMPDEST PUSH2 0xFE DUP2 PUSH2 0xEC JUMP JUMPDEST DUP2 EQ PUSH2 0x108 JUMPI PUSH0 DUP1 REVERT JUMPDEST POP JUMP JUMPDEST PUSH0 DUP2 CALLDATALOAD SWAP1 POP PUSH2 0x119 DUP2 PUSH2 0xF5 JUMP JUMPDEST SWAP3 SWAP2 POP POP JUMP JUMPDEST PUSH0 DUP1 PUSH1 0x40 DUP4 DUP6 SUB SLT ISZERO PUSH2 0x135 JUMPI PUSH2 0x134 PUSH2 0x8E JUMP JUMPDEST JUMPDEST PUSH0 PUSH2 0x142 DUP6 DUP3 DUP7 ADD PUSH2 0xD8 JUMP JUMPDEST SWAP3 POP POP PUSH1 0x20 PUSH2 0x153 DUP6 DUP3 DUP7 ADD PUSH2 0x10B JUMP JUMPDEST SWAP2 POP POP SWAP3 POP SWAP3 SWAP1 POP JUMP INVALID LOG2 PUSH5 0x6970667358 0x22 SLT KECCAK256 BLOBBASEFEE SWAP5 STATICCALL 0xC0 POP 0xC5 PREVRANDAO PUSH6 0xDFFA5938C104 PUSH15 0x45408B24010AB359BDD2FE71A8BD7A JUMPDEST SWAP2 PUSH5 0x736F6C6343 STOP ADDMOD BYTE STOP CALLER "
				},
				"gasEstimates": {
					"creation": {
						"codeDepositCost": "80600",
						"executionCost": "127",
						"totalCost": "80727"
					},
					"external": {
						"setMapping(address,int256)": "22800"
					}
				},
				"methodIdentifiers": {
					"setMapping(address,int256)": "c2ca3bc1"
				}
			},
			"storageLayout": {
				"storage": [
					{
						"astId": 5,
						"contract": "contracts/4_Mapping.sol:Mapping",
						"label": "map",
						"offset": 0,
						"slot": "0",
						"type": "t_mapping(t_address,t_int256)"
					}
				],
				"types": {
					"t_address": {
						"encoding": "inplace",
						"label": "address",
						"numberOfBytes": "20"
					},
					"t_int256": {
						"encoding": "inplace",
						"label": "int256",
						"numberOfBytes": "32"
					},
					"t_mapping(t_address,t_int256)": {
						"encoding": "mapping",
						"key": "t_address",
						"label": "mapping(address => int256)",
						"numberOfBytes": "32",
						"value": "t_int256"
					}
				}
			},
			"userdoc": {
				"kind": "user",
				"methods": {},
				"version": 1
			}
		}
	}
}