{
	"contracts/3_Array.sol": {
		"Array": {
			"abi": [
				{
					"inputs": [],
					"name": "calculatorInt",
					"outputs": [
						{
							"internalType": "uint128",
							"name": "",
							"type": "uint128"
						}
					],
					"stateMutability": "pure",
					"type": "function"
				},
				{
					"inputs": [],
					"name": "test",
					"outputs": [
						{
							"internalType": "bytes1",
							"name": "",
							"type": "bytes1"
						}
					],
					"stateMutability": "pure",
					"type": "function"
				}
			],
			"devdoc": {
				"kind": "dev",
				"methods": {},
				"version": 1
			},
			"evm": {
				"assembly": "    /* \"contracts/3_Array.sol\":59:377  contract Array{... */\n  mstore(0x40, 0x80)\n  callvalue\n  dup1\n  iszero\n  tag_1\n  jumpi\n  0x00\n  dup1\n  revert\ntag_1:\n  pop\n  dataSize(sub_0)\n  dup1\n  dataOffset(sub_0)\n  0x00\n  codecopy\n  0x00\n  return\nstop\n\nsub_0: assembly {\n        /* \"contracts/3_Array.sol\":59:377  contract Array{... */\n      mstore(0x40, 0x80)\n      callvalue\n      dup1\n      iszero\n      tag_1\n      jumpi\n      0x00\n      dup1\n      revert\n    tag_1:\n      pop\n      jumpi(tag_2, lt(calldatasize, 0x04))\n      shr(0xe0, calldataload(0x00))\n      dup1\n      0xf7a380fb\n      eq\n      tag_3\n      jumpi\n      dup1\n      0xf8a8fd6d\n      eq\n      tag_4\n      jumpi\n    tag_2:\n      0x00\n      dup1\n      revert\n        /* \"contracts/3_Array.sol\":237:375  function calculatorInt() public pure returns (uint128) {... */\n    tag_3:\n      tag_5\n      tag_6\n      jump\t// in\n    tag_5:\n      mload(0x40)\n      tag_7\n      swap2\n      swap1\n      tag_8\n      jump\t// in\n    tag_7:\n      mload(0x40)\n      dup1\n      swap2\n      sub\n      swap1\n      return\n        /* \"contracts/3_Array.sol\":81:179  function test() public pure returns(bytes1) {... */\n    tag_4:\n      tag_9\n      tag_10\n      jump\t// in\n    tag_9:\n      mload(0x40)\n      tag_11\n      swap2\n      swap1\n      tag_12\n      jump\t// in\n    tag_11:\n      mload(0x40)\n      dup1\n      swap2\n      sub\n      swap1\n      return\n        /* \"contracts/3_Array.sol\":237:375  function calculatorInt() public pure returns (uint128) {... */\n    tag_6:\n        /* \"contracts/3_Array.sol\":283:290  uint128 */\n      0x00\n        /* \"contracts/3_Array.sol\":302:311  uint128 a */\n      dup1\n        /* \"contracts/3_Array.sol\":314:315  1 */\n      0x01\n        /* \"contracts/3_Array.sol\":302:315  uint128 a = 1 */\n      swap1\n      pop\n        /* \"contracts/3_Array.sol\":325:334  uint128 b */\n      0x00\n        /* \"contracts/3_Array.sol\":349:350  a */\n      dup2\n        /* \"contracts/3_Array.sol\":337:346  2.5 + 0.5 */\n      0x03\n        /* \"contracts/3_Array.sol\":337:350  2.5 + 0.5 + a */\n      tag_14\n      swap2\n      swap1\n      tag_15\n      jump\t// in\n    tag_14:\n        /* \"contracts/3_Array.sol\":325:350  uint128 b = 2.5 + 0.5 + a */\n      swap1\n      pop\n        /* \"contracts/3_Array.sol\":367:368  b */\n      dup1\n        /* \"contracts/3_Array.sol\":360:368  return b */\n      swap3\n      pop\n      pop\n      pop\n        /* \"contracts/3_Array.sol\":237:375  function calculatorInt() public pure returns (uint128) {... */\n      swap1\n      jump\t// out\n        /* \"contracts/3_Array.sol\":81:179  function test() public pure returns(bytes1) {... */\n    tag_10:\n        /* \"contracts/3_Array.sol\":117:123  bytes1 */\n      0x00\n        /* \"contracts/3_Array.sol\":135:143  bytes3 b */\n      dup1\n        /* \"contracts/3_Array.sol\":135:151  bytes3 b = 'abc' */\n      0x6162630000000000000000000000000000000000000000000000000000000000\n      swap1\n      pop\n        /* \"contracts/3_Array.sol\":168:169  b */\n      dup1\n        /* \"contracts/3_Array.sol\":170:171  1 */\n      0x01\n        /* \"contracts/3_Array.sol\":168:172  b[1] */\n      0x03\n      dup2\n      lt\n      tag_17\n      jumpi\n      tag_18\n      tag_19\n      jump\t// in\n    tag_18:\n    tag_17:\n      byte\n      0xf8\n      shl\n        /* \"contracts/3_Array.sol\":161:172  return b[1] */\n      swap2\n      pop\n      pop\n        /* \"contracts/3_Array.sol\":81:179  function test() public pure returns(bytes1) {... */\n      swap1\n      jump\t// out\n        /* \"#utility.yul\":7:125   */\n    tag_20:\n        /* \"#utility.yul\":44:51   */\n      0x00\n        /* \"#utility.yul\":84:118   */\n      0xffffffffffffffffffffffffffffffff\n        /* \"#utility.yul\":77:82   */\n      dup3\n        /* \"#utility.yul\":73:119   */\n      and\n        /* \"#utility.yul\":62:119   */\n      swap1\n      pop\n        /* \"#utility.yul\":7:125   */\n      swap2\n      swap1\n      pop\n      jump\t// out\n        /* \"#utility.yul\":131:249   */\n    tag_21:\n        /* \"#utility.yul\":218:242   */\n      tag_28\n        /* \"#utility.yul\":236:241   */\n      dup2\n        /* \"#utility.yul\":218:242   */\n      tag_20\n      jump\t// in\n    tag_28:\n        /* \"#utility.yul\":213:216   */\n      dup3\n        /* \"#utility.yul\":206:243   */\n      mstore\n        /* \"#utility.yul\":131:249   */\n      pop\n      pop\n      jump\t// out\n        /* \"#utility.yul\":255:477   */\n    tag_8:\n        /* \"#utility.yul\":348:352   */\n      0x00\n        /* \"#utility.yul\":386:388   */\n      0x20\n        /* \"#utility.yul\":375:384   */\n      dup3\n        /* \"#utility.yul\":371:389   */\n      add\n        /* \"#utility.yul\":363:389   */\n      swap1\n      pop\n        /* \"#utility.yul\":399:470   */\n      tag_30\n        /* \"#utility.yul\":467:468   */\n      0x00\n        /* \"#utility.yul\":456:465   */\n      dup4\n        /* \"#utility.yul\":452:469   */\n      add\n        /* \"#utility.yul\":443:449   */\n      dup5\n        /* \"#utility.yul\":399:470   */\n      tag_21\n      jump\t// in\n    tag_30:\n        /* \"#utility.yul\":255:477   */\n      swap3\n      swap2\n      pop\n      pop\n      jump\t// out\n        /* \"#utility.yul\":483:632   */\n    tag_22:\n        /* \"#utility.yul\":519:526   */\n      0x00\n        /* \"#utility.yul\":559:625   */\n      0xff00000000000000000000000000000000000000000000000000000000000000\n        /* \"#utility.yul\":552:557   */\n      dup3\n        /* \"#utility.yul\":548:626   */\n      and\n        /* \"#utility.yul\":537:626   */\n      swap1\n      pop\n        /* \"#utility.yul\":483:632   */\n      swap2\n      swap1\n      pop\n      jump\t// out\n        /* \"#utility.yul\":638:753   */\n    tag_23:\n        /* \"#utility.yul\":723:746   */\n      tag_33\n        /* \"#utility.yul\":740:745   */\n      dup2\n        /* \"#utility.yul\":723:746   */\n      tag_22\n      jump\t// in\n    tag_33:\n        /* \"#utility.yul\":718:721   */\n      dup3\n        /* \"#utility.yul\":711:747   */\n      mstore\n        /* \"#utility.yul\":638:753   */\n      pop\n      pop\n      jump\t// out\n        /* \"#utility.yul\":759:977   */\n    tag_12:\n        /* \"#utility.yul\":850:854   */\n      0x00\n        /* \"#utility.yul\":888:890   */\n      0x20\n        /* \"#utility.yul\":877:886   */\n      dup3\n        /* \"#utility.yul\":873:891   */\n      add\n        /* \"#utility.yul\":865:891   */\n      swap1\n      pop\n        /* \"#utility.yul\":901:970   */\n      tag_35\n        /* \"#utility.yul\":967:968   */\n      0x00\n        /* \"#utility.yul\":956:965   */\n      dup4\n        /* \"#utility.yul\":952:969   */\n      add\n        /* \"#utility.yul\":943:949   */\n      dup5\n        /* \"#utility.yul\":901:970   */\n      tag_23\n      jump\t// in\n    tag_35:\n        /* \"#utility.yul\":759:977   */\n      swap3\n      swap2\n      pop\n      pop\n      jump\t// out\n        /* \"#utility.yul\":983:1163   */\n    tag_24:\n        /* \"#utility.yul\":1031:1108   */\n      0x4e487b7100000000000000000000000000000000000000000000000000000000\n        /* \"#utility.yul\":1028:1029   */\n      0x00\n        /* \"#utility.yul\":1021:1109   */\n      mstore\n        /* \"#utility.yul\":1128:1132   */\n      0x11\n        /* \"#utility.yul\":1125:1126   */\n      0x04\n        /* \"#utility.yul\":1118:1133   */\n      mstore\n        /* \"#utility.yul\":1152:1156   */\n      0x24\n        /* \"#utility.yul\":1149:1150   */\n      0x00\n        /* \"#utility.yul\":1142:1157   */\n      revert\n        /* \"#utility.yul\":1169:1393   */\n    tag_15:\n        /* \"#utility.yul\":1209:1212   */\n      0x00\n        /* \"#utility.yul\":1228:1248   */\n      tag_38\n        /* \"#utility.yul\":1246:1247   */\n      dup3\n        /* \"#utility.yul\":1228:1248   */\n      tag_20\n      jump\t// in\n    tag_38:\n        /* \"#utility.yul\":1223:1248   */\n      swap2\n      pop\n        /* \"#utility.yul\":1262:1282   */\n      tag_39\n        /* \"#utility.yul\":1280:1281   */\n      dup4\n        /* \"#utility.yul\":1262:1282   */\n      tag_20\n      jump\t// in\n    tag_39:\n        /* \"#utility.yul\":1257:1282   */\n      swap3\n      pop\n        /* \"#utility.yul\":1305:1306   */\n      dup3\n        /* \"#utility.yul\":1302:1303   */\n      dup3\n        /* \"#utility.yul\":1298:1307   */\n      add\n        /* \"#utility.yul\":1291:1307   */\n      swap1\n      pop\n        /* \"#utility.yul\":1328:1362   */\n      0xffffffffffffffffffffffffffffffff\n        /* \"#utility.yul\":1323:1326   */\n      dup2\n        /* \"#utility.yul\":1320:1363   */\n      gt\n        /* \"#utility.yul\":1317:1386   */\n      iszero\n      tag_40\n      jumpi\n        /* \"#utility.yul\":1366:1384   */\n      tag_41\n      tag_24\n      jump\t// in\n    tag_41:\n        /* \"#utility.yul\":1317:1386   */\n    tag_40:\n        /* \"#utility.yul\":1169:1393   */\n      swap3\n      swap2\n      pop\n      pop\n      jump\t// out\n        /* \"#utility.yul\":1399:1579   */\n    tag_19:\n        /* \"#utility.yul\":1447:1524   */\n      0x4e487b7100000000000000000000000000000000000000000000000000000000\n        /* \"#utility.yul\":1444:1445   */\n      0x00\n        /* \"#utility.yul\":1437:1525   */\n      mstore\n        /* \"#utility.yul\":1544:1548   */\n      0x32\n        /* \"#utility.yul\":1541:1542   */\n      0x04\n        /* \"#utility.yul\":1534:1549   */\n      mstore\n        /* \"#utility.yul\":1568:1572   */\n      0x24\n        /* \"#utility.yul\":1565:1566   */\n      0x00\n        /* \"#utility.yul\":1558:1573   */\n      revert\n\n    auxdata: 0xa26469706673582212206f2b17af1b20c13c69642dcbb93a59033dcf67dbe93028a984860acd6cc7483b64736f6c634300081a0033\n}\n",
				"bytecode": {
					"linkReferences": {},
					"object": "6080604052348015600e575f80fd5b5061023e8061001c5f395ff3fe608060405234801561000f575f80fd5b5060043610610034575f3560e01c8063f7a380fb14610038578063f8a8fd6d14610056575b5f80fd5b610040610074565b60405161004d91906100ff565b60405180910390f35b61005e610092565b60405161006b9190610152565b60405180910390f35b5f80600190505f8160036100889190610198565b9050809250505090565b5f807f61626300000000000000000000000000000000000000000000000000000000009050806001600381106100cb576100ca6101db565b5b1a60f81b91505090565b5f6fffffffffffffffffffffffffffffffff82169050919050565b6100f9816100d5565b82525050565b5f6020820190506101125f8301846100f0565b92915050565b5f7fff0000000000000000000000000000000000000000000000000000000000000082169050919050565b61014c81610118565b82525050565b5f6020820190506101655f830184610143565b92915050565b7f4e487b71000000000000000000000000000000000000000000000000000000005f52601160045260245ffd5b5f6101a2826100d5565b91506101ad836100d5565b925082820190506fffffffffffffffffffffffffffffffff8111156101d5576101d461016b565b5b92915050565b7f4e487b71000000000000000000000000000000000000000000000000000000005f52603260045260245ffdfea26469706673582212206f2b17af1b20c13c69642dcbb93a59033dcf67dbe93028a984860acd6cc7483b64736f6c634300081a0033",
					"opcodes": "PUSH1 0x80 PUSH1 0x40 MSTORE CALLVALUE DUP1 ISZERO PUSH1 0xE JUMPI PUSH0 DUP1 REVERT JUMPDEST POP PUSH2 0x23E DUP1 PUSH2 0x1C PUSH0 CODECOPY PUSH0 RETURN INVALID PUSH1 0x80 PUSH1 0x40 MSTORE CALLVALUE DUP1 ISZERO PUSH2 0xF JUMPI PUSH0 DUP1 REVERT JUMPDEST POP PUSH1 0x4 CALLDATASIZE LT PUSH2 0x34 JUMPI PUSH0 CALLDATALOAD PUSH1 0xE0 SHR DUP1 PUSH4 0xF7A380FB EQ PUSH2 0x38 JUMPI DUP1 PUSH4 0xF8A8FD6D EQ PUSH2 0x56 JUMPI JUMPDEST PUSH0 DUP1 REVERT JUMPDEST PUSH2 0x40 PUSH2 0x74 JUMP JUMPDEST PUSH1 0x40 MLOAD PUSH2 0x4D SWAP2 SWAP1 PUSH2 0xFF JUMP JUMPDEST PUSH1 0x40 MLOAD DUP1 SWAP2 SUB SWAP1 RETURN JUMPDEST PUSH2 0x5E PUSH2 0x92 JUMP JUMPDEST PUSH1 0x40 MLOAD PUSH2 0x6B SWAP2 SWAP1 PUSH2 0x152 JUMP JUMPDEST PUSH1 0x40 MLOAD DUP1 SWAP2 SUB SWAP1 RETURN JUMPDEST PUSH0 DUP1 PUSH1 0x1 SWAP1 POP PUSH0 DUP2 PUSH1 0x3 PUSH2 0x88 SWAP2 SWAP1 PUSH2 0x198 JUMP JUMPDEST SWAP1 POP DUP1 SWAP3 POP POP POP SWAP1 JUMP JUMPDEST PUSH0 DUP1 PUSH32 0x6162630000000000000000000000000000000000000000000000000000000000 SWAP1 POP DUP1 PUSH1 0x1 PUSH1 0x3 DUP2 LT PUSH2 0xCB JUMPI PUSH2 0xCA PUSH2 0x1DB JUMP JUMPDEST JUMPDEST BYTE PUSH1 0xF8 SHL SWAP2 POP POP SWAP1 JUMP JUMPDEST PUSH0 PUSH16 0xFFFFFFFFFFFFFFFFFFFFFFFFFFFFFFFF DUP3 AND SWAP1 POP SWAP2 SWAP1 POP JUMP JUMPDEST PUSH2 0xF9 DUP2 PUSH2 0xD5 JUMP JUMPDEST DUP3 MSTORE POP POP JUMP JUMPDEST PUSH0 PUSH1 0x20 DUP3 ADD SWAP1 POP PUSH2 0x112 PUSH0 DUP4 ADD DUP5 PUSH2 0xF0 JUMP JUMPDEST SWAP3 SWAP2 POP POP JUMP JUMPDEST PUSH0 PUSH32 0xFF00000000000000000000000000000000000000000000000000000000000000 DUP3 AND SWAP1 POP SWAP2 SWAP1 POP JUMP JUMPDEST PUSH2 0x14C DUP2 PUSH2 0x118 JUMP JUMPDEST DUP3 MSTORE POP POP JUMP JUMPDEST PUSH0 PUSH1 0x20 DUP3 ADD SWAP1 POP PUSH2 0x165 PUSH0 DUP4 ADD DUP5 PUSH2 0x143 JUMP JUMPDEST SWAP3 SWAP2 POP POP JUMP JUMPDEST PUSH32 0x4E487B7100000000000000000000000000000000000000000000000000000000 PUSH0 MSTORE PUSH1 0x11 PUSH1 0x4 MSTORE PUSH1 0x24 PUSH0 REVERT JUMPDEST PUSH0 PUSH2 0x1A2 DUP3 PUSH2 0xD5 JUMP JUMPDEST SWAP2 POP PUSH2 0x1AD DUP4 PUSH2 0xD5 JUMP JUMPDEST SWAP3 POP DUP3 DUP3 ADD SWAP1 POP PUSH16 0xFFFFFFFFFFFFFFFFFFFFFFFFFFFFFFFF DUP2 GT ISZERO PUSH2 0x1D5 JUMPI PUSH2 0x1D4 PUSH2 0x16B JUMP JUMPDEST JUMPDEST SWAP3 SWAP2 POP POP JUMP JUMPDEST PUSH32 0x4E487B7100000000000000000000000000000000000000000000000000000000 PUSH0 MSTORE PUSH1 0x32 PUSH1 0x4 MSTORE PUSH1 0x24 PUSH0 REVERT INVALID LOG2 PUSH5 0x6970667358 0x22 SLT KECCAK256 PUSH16 0x2B17AF1B20C13C69642DCBB93A59033D 0xCF PUSH8 0xDBE93028A984860A 0xCD PUSH13 0xC7483B64736F6C634300081A00 CALLER "
				},
				"gasEstimates": {
					"creation": {
						"codeDepositCost": "114800",
						"executionCost": "157",
						"totalCost": "114957"
					},
					"external": {
						"calculatorInt()": "infinite",
						"test()": "386"
					}
				},
				"methodIdentifiers": {
					"calculatorInt()": "f7a380fb",
					"test()": "f8a8fd6d"
				}
			},
			"storageLayout": {
				"storage": [],
				"types": null
			},
			"userdoc": {
				"kind": "user",
				"methods": {},
				"version": 1
			}
		}
	}
}