{
	"contracts/2_Integer.sol": {
		"Integer": {
			"abi": [
				{
					"inputs": [],
					"name": "calculatorInt",
					"outputs": [
						{
							"internalType": "uint128",
							"name": "",
							"type": "uint128"
						}
					],
					"stateMutability": "pure",
					"type": "function"
				},
				{
					"inputs": [],
					"name": "overflow",
					"outputs": [
						{
							"internalType": "uint8",
							"name": "result",
							"type": "uint8"
						}
					],
					"stateMutability": "pure",
					"type": "function"
				}
			],
			"devdoc": {
				"kind": "dev",
				"methods": {},
				"version": 1
			},
			"evm": {
				"assembly": "    /* \"contracts/2_Integer.sol\":59:516  contract Integer {... */\n  mstore(0x40, 0x80)\n  callvalue\n  dup1\n  iszero\n  tag_1\n  jumpi\n  0x00\n  dup1\n  revert\ntag_1:\n  pop\n  dataSize(sub_0)\n  dup1\n  dataOffset(sub_0)\n  0x00\n  codecopy\n  0x00\n  return\nstop\n\nsub_0: assembly {\n        /* \"contracts/2_Integer.sol\":59:516  contract Integer {... */\n      mstore(0x40, 0x80)\n      callvalue\n      dup1\n      iszero\n      tag_1\n      jumpi\n      0x00\n      dup1\n      revert\n    tag_1:\n      pop\n      jumpi(tag_2, lt(calldatasize, 0x04))\n      shr(0xe0, calldataload(0x00))\n      dup1\n      0x4264c3\n      eq\n      tag_3\n      jumpi\n      dup1\n      0xf7a380fb\n      eq\n      tag_4\n      jumpi\n    tag_2:\n      0x00\n      dup1\n      revert\n        /* \"contracts/2_Integer.sol\":198:318  function overflow() public pure  returns (uint8 result){... */\n    tag_3:\n      tag_5\n      tag_6\n      jump\t// in\n    tag_5:\n      mload(0x40)\n      tag_7\n      swap2\n      swap1\n      tag_8\n      jump\t// in\n    tag_7:\n      mload(0x40)\n      dup1\n      swap2\n      sub\n      swap1\n      return\n        /* \"contracts/2_Integer.sol\":376:514  function calculatorInt() public pure returns (uint128) {... */\n    tag_4:\n      tag_9\n      tag_10\n      jump\t// in\n    tag_9:\n      mload(0x40)\n      tag_11\n      swap2\n      swap1\n      tag_12\n      jump\t// in\n    tag_11:\n      mload(0x40)\n      dup1\n      swap2\n      sub\n      swap1\n      return\n        /* \"contracts/2_Integer.sol\":198:318  function overflow() public pure  returns (uint8 result){... */\n    tag_6:\n        /* \"contracts/2_Integer.sol\":240:252  uint8 result */\n      0x00\n        /* \"contracts/2_Integer.sol\":263:270  uint8 a */\n      dup1\n        /* \"contracts/2_Integer.sol\":273:276  255 */\n      0xff\n        /* \"contracts/2_Integer.sol\":263:276  uint8 a = 255 */\n      swap1\n      pop\n        /* \"contracts/2_Integer.sol\":292:293  1 */\n      0x01\n        /* \"contracts/2_Integer.sol\":290:291  a */\n      dup2\n        /* \"contracts/2_Integer.sol\":290:293  a+1 */\n      tag_14\n      swap2\n      swap1\n      tag_15\n      jump\t// in\n    tag_14:\n        /* \"contracts/2_Integer.sol\":286:293  a = a+1 */\n      swap1\n      pop\n        /* \"contracts/2_Integer.sol\":310:311  a */\n      dup1\n        /* \"contracts/2_Integer.sol\":303:311  return a */\n      swap2\n      pop\n      pop\n        /* \"contracts/2_Integer.sol\":198:318  function overflow() public pure  returns (uint8 result){... */\n      swap1\n      jump\t// out\n        /* \"contracts/2_Integer.sol\":376:514  function calculatorInt() public pure returns (uint128) {... */\n    tag_10:\n        /* \"contracts/2_Integer.sol\":422:429  uint128 */\n      0x00\n        /* \"contracts/2_Integer.sol\":441:450  uint128 a */\n      dup1\n        /* \"contracts/2_Integer.sol\":453:454  1 */\n      0x01\n        /* \"contracts/2_Integer.sol\":441:454  uint128 a = 1 */\n      swap1\n      pop\n        /* \"contracts/2_Integer.sol\":464:473  uint128 b */\n      0x00\n        /* \"contracts/2_Integer.sol\":488:489  a */\n      dup2\n        /* \"contracts/2_Integer.sol\":476:485  2.5 + 0.5 */\n      0x03\n        /* \"contracts/2_Integer.sol\":476:489  2.5 + 0.5 + a */\n      tag_17\n      swap2\n      swap1\n      tag_18\n      jump\t// in\n    tag_17:\n        /* \"contracts/2_Integer.sol\":464:489  uint128 b = 2.5 + 0.5 + a */\n      swap1\n      pop\n        /* \"contracts/2_Integer.sol\":506:507  b */\n      dup1\n        /* \"contracts/2_Integer.sol\":499:507  return b */\n      swap3\n      pop\n      pop\n      pop\n        /* \"contracts/2_Integer.sol\":376:514  function calculatorInt() public pure returns (uint128) {... */\n      swap1\n      jump\t// out\n        /* \"#utility.yul\":7:93   */\n    tag_19:\n        /* \"#utility.yul\":42:49   */\n      0x00\n        /* \"#utility.yul\":82:86   */\n      0xff\n        /* \"#utility.yul\":75:80   */\n      dup3\n        /* \"#utility.yul\":71:87   */\n      and\n        /* \"#utility.yul\":60:87   */\n      swap1\n      pop\n        /* \"#utility.yul\":7:93   */\n      swap2\n      swap1\n      pop\n      jump\t// out\n        /* \"#utility.yul\":99:211   */\n    tag_20:\n        /* \"#utility.yul\":182:204   */\n      tag_27\n        /* \"#utility.yul\":198:203   */\n      dup2\n        /* \"#utility.yul\":182:204   */\n      tag_19\n      jump\t// in\n    tag_27:\n        /* \"#utility.yul\":177:180   */\n      dup3\n        /* \"#utility.yul\":170:205   */\n      mstore\n        /* \"#utility.yul\":99:211   */\n      pop\n      pop\n      jump\t// out\n        /* \"#utility.yul\":217:431   */\n    tag_8:\n        /* \"#utility.yul\":306:310   */\n      0x00\n        /* \"#utility.yul\":344:346   */\n      0x20\n        /* \"#utility.yul\":333:342   */\n      dup3\n        /* \"#utility.yul\":329:347   */\n      add\n        /* \"#utility.yul\":321:347   */\n      swap1\n      pop\n        /* \"#utility.yul\":357:424   */\n      tag_29\n        /* \"#utility.yul\":421:422   */\n      0x00\n        /* \"#utility.yul\":410:419   */\n      dup4\n        /* \"#utility.yul\":406:423   */\n      add\n        /* \"#utility.yul\":397:403   */\n      dup5\n        /* \"#utility.yul\":357:424   */\n      tag_20\n      jump\t// in\n    tag_29:\n        /* \"#utility.yul\":217:431   */\n      swap3\n      swap2\n      pop\n      pop\n      jump\t// out\n        /* \"#utility.yul\":437:555   */\n    tag_21:\n        /* \"#utility.yul\":474:481   */\n      0x00\n        /* \"#utility.yul\":514:548   */\n      0xffffffffffffffffffffffffffffffff\n        /* \"#utility.yul\":507:512   */\n      dup3\n        /* \"#utility.yul\":503:549   */\n      and\n        /* \"#utility.yul\":492:549   */\n      swap1\n      pop\n        /* \"#utility.yul\":437:555   */\n      swap2\n      swap1\n      pop\n      jump\t// out\n        /* \"#utility.yul\":561:679   */\n    tag_22:\n        /* \"#utility.yul\":648:672   */\n      tag_32\n        /* \"#utility.yul\":666:671   */\n      dup2\n        /* \"#utility.yul\":648:672   */\n      tag_21\n      jump\t// in\n    tag_32:\n        /* \"#utility.yul\":643:646   */\n      dup3\n        /* \"#utility.yul\":636:673   */\n      mstore\n        /* \"#utility.yul\":561:679   */\n      pop\n      pop\n      jump\t// out\n        /* \"#utility.yul\":685:907   */\n    tag_12:\n        /* \"#utility.yul\":778:782   */\n      0x00\n        /* \"#utility.yul\":816:818   */\n      0x20\n        /* \"#utility.yul\":805:814   */\n      dup3\n        /* \"#utility.yul\":801:819   */\n      add\n        /* \"#utility.yul\":793:819   */\n      swap1\n      pop\n        /* \"#utility.yul\":829:900   */\n      tag_34\n        /* \"#utility.yul\":897:898   */\n      0x00\n        /* \"#utility.yul\":886:895   */\n      dup4\n        /* \"#utility.yul\":882:899   */\n      add\n        /* \"#utility.yul\":873:879   */\n      dup5\n        /* \"#utility.yul\":829:900   */\n      tag_22\n      jump\t// in\n    tag_34:\n        /* \"#utility.yul\":685:907   */\n      swap3\n      swap2\n      pop\n      pop\n      jump\t// out\n        /* \"#utility.yul\":913:1093   */\n    tag_23:\n        /* \"#utility.yul\":961:1038   */\n      0x4e487b7100000000000000000000000000000000000000000000000000000000\n        /* \"#utility.yul\":958:959   */\n      0x00\n        /* \"#utility.yul\":951:1039   */\n      mstore\n        /* \"#utility.yul\":1058:1062   */\n      0x11\n        /* \"#utility.yul\":1055:1056   */\n      0x04\n        /* \"#utility.yul\":1048:1063   */\n      mstore\n        /* \"#utility.yul\":1082:1086   */\n      0x24\n        /* \"#utility.yul\":1079:1080   */\n      0x00\n        /* \"#utility.yul\":1072:1087   */\n      revert\n        /* \"#utility.yul\":1099:1287   */\n    tag_15:\n        /* \"#utility.yul\":1137:1140   */\n      0x00\n        /* \"#utility.yul\":1156:1174   */\n      tag_37\n        /* \"#utility.yul\":1172:1173   */\n      dup3\n        /* \"#utility.yul\":1156:1174   */\n      tag_19\n      jump\t// in\n    tag_37:\n        /* \"#utility.yul\":1151:1174   */\n      swap2\n      pop\n        /* \"#utility.yul\":1188:1206   */\n      tag_38\n        /* \"#utility.yul\":1204:1205   */\n      dup4\n        /* \"#utility.yul\":1188:1206   */\n      tag_19\n      jump\t// in\n    tag_38:\n        /* \"#utility.yul\":1183:1206   */\n      swap3\n      pop\n        /* \"#utility.yul\":1229:1230   */\n      dup3\n        /* \"#utility.yul\":1226:1227   */\n      dup3\n        /* \"#utility.yul\":1222:1231   */\n      add\n        /* \"#utility.yul\":1215:1231   */\n      swap1\n      pop\n        /* \"#utility.yul\":1252:1256   */\n      0xff\n        /* \"#utility.yul\":1247:1250   */\n      dup2\n        /* \"#utility.yul\":1244:1257   */\n      gt\n        /* \"#utility.yul\":1241:1280   */\n      iszero\n      tag_39\n      jumpi\n        /* \"#utility.yul\":1260:1278   */\n      tag_40\n      tag_23\n      jump\t// in\n    tag_40:\n        /* \"#utility.yul\":1241:1280   */\n    tag_39:\n        /* \"#utility.yul\":1099:1287   */\n      swap3\n      swap2\n      pop\n      pop\n      jump\t// out\n        /* \"#utility.yul\":1293:1517   */\n    tag_18:\n        /* \"#utility.yul\":1333:1336   */\n      0x00\n        /* \"#utility.yul\":1352:1372   */\n      tag_42\n        /* \"#utility.yul\":1370:1371   */\n      dup3\n        /* \"#utility.yul\":1352:1372   */\n      tag_21\n      jump\t// in\n    tag_42:\n        /* \"#utility.yul\":1347:1372   */\n      swap2\n      pop\n        /* \"#utility.yul\":1386:1406   */\n      tag_43\n        /* \"#utility.yul\":1404:1405   */\n      dup4\n        /* \"#utility.yul\":1386:1406   */\n      tag_21\n      jump\t// in\n    tag_43:\n        /* \"#utility.yul\":1381:1406   */\n      swap3\n      pop\n        /* \"#utility.yul\":1429:1430   */\n      dup3\n        /* \"#utility.yul\":1426:1427   */\n      dup3\n        /* \"#utility.yul\":1422:1431   */\n      add\n        /* \"#utility.yul\":1415:1431   */\n      swap1\n      pop\n        /* \"#utility.yul\":1452:1486   */\n      0xffffffffffffffffffffffffffffffff\n        /* \"#utility.yul\":1447:1450   */\n      dup2\n        /* \"#utility.yul\":1444:1487   */\n      gt\n        /* \"#utility.yul\":1441:1510   */\n      iszero\n      tag_44\n      jumpi\n        /* \"#utility.yul\":1490:1508   */\n      tag_45\n      tag_23\n      jump\t// in\n    tag_45:\n        /* \"#utility.yul\":1441:1510   */\n    tag_44:\n        /* \"#utility.yul\":1293:1517   */\n      swap3\n      swap2\n      pop\n      pop\n      jump\t// out\n\n    auxdata: 0xa26469706673582212208736ef6ad190e25c10a0bcc994a6cd96ca4c684a45675b964d2f62ce1e1d98aa64736f6c634300081a0033\n}\n",
				"bytecode": {
					"linkReferences": {},
					"object": "6080604052348015600e575f80fd5b506101fe8061001c5f395ff3fe608060405234801561000f575f80fd5b5060043610610033575f3560e01c80624264c314610037578063f7a380fb14610055575b5f80fd5b61003f610073565b60405161004c91906100c8565b60405180910390f35b61005d61008f565b60405161006a919061010b565b60405180910390f35b5f8060ff90506001816100869190610151565b90508091505090565b5f80600190505f8160036100a39190610185565b9050809250505090565b5f60ff82169050919050565b6100c2816100ad565b82525050565b5f6020820190506100db5f8301846100b9565b92915050565b5f6fffffffffffffffffffffffffffffffff82169050919050565b610105816100e1565b82525050565b5f60208201905061011e5f8301846100fc565b92915050565b7f4e487b71000000000000000000000000000000000000000000000000000000005f52601160045260245ffd5b5f61015b826100ad565b9150610166836100ad565b9250828201905060ff81111561017f5761017e610124565b5b92915050565b5f61018f826100e1565b915061019a836100e1565b925082820190506fffffffffffffffffffffffffffffffff8111156101c2576101c1610124565b5b9291505056fea26469706673582212208736ef6ad190e25c10a0bcc994a6cd96ca4c684a45675b964d2f62ce1e1d98aa64736f6c634300081a0033",
					"opcodes": "PUSH1 0x80 PUSH1 0x40 MSTORE CALLVALUE DUP1 ISZERO PUSH1 0xE JUMPI PUSH0 DUP1 REVERT JUMPDEST POP PUSH2 0x1FE DUP1 PUSH2 0x1C PUSH0 CODECOPY PUSH0 RETURN INVALID PUSH1 0x80 PUSH1 0x40 MSTORE CALLVALUE DUP1 ISZERO PUSH2 0xF JUMPI PUSH0 DUP1 REVERT JUMPDEST POP PUSH1 0x4 CALLDATASIZE LT PUSH2 0x33 JUMPI PUSH0 CALLDATALOAD PUSH1 0xE0 SHR DUP1 PUSH3 0x4264C3 EQ PUSH2 0x37 JUMPI DUP1 PUSH4 0xF7A380FB EQ PUSH2 0x55 JUMPI JUMPDEST PUSH0 DUP1 REVERT JUMPDEST PUSH2 0x3F PUSH2 0x73 JUMP JUMPDEST PUSH1 0x40 MLOAD PUSH2 0x4C SWAP2 SWAP1 PUSH2 0xC8 JUMP JUMPDEST PUSH1 0x40 MLOAD DUP1 SWAP2 SUB SWAP1 RETURN JUMPDEST PUSH2 0x5D PUSH2 0x8F JUMP JUMPDEST PUSH1 0x40 MLOAD PUSH2 0x6A SWAP2 SWAP1 PUSH2 0x10B JUMP JUMPDEST PUSH1 0x40 MLOAD DUP1 SWAP2 SUB SWAP1 RETURN JUMPDEST PUSH0 DUP1 PUSH1 0xFF SWAP1 POP PUSH1 0x1 DUP2 PUSH2 0x86 SWAP2 SWAP1 PUSH2 0x151 JUMP JUMPDEST SWAP1 POP DUP1 SWAP2 POP POP SWAP1 JUMP JUMPDEST PUSH0 DUP1 PUSH1 0x1 SWAP1 POP PUSH0 DUP2 PUSH1 0x3 PUSH2 0xA3 SWAP2 SWAP1 PUSH2 0x185 JUMP JUMPDEST SWAP1 POP DUP1 SWAP3 POP POP POP SWAP1 JUMP JUMPDEST PUSH0 PUSH1 0xFF DUP3 AND SWAP1 POP SWAP2 SWAP1 POP JUMP JUMPDEST PUSH2 0xC2 DUP2 PUSH2 0xAD JUMP JUMPDEST DUP3 MSTORE POP POP JUMP JUMPDEST PUSH0 PUSH1 0x20 DUP3 ADD SWAP1 POP PUSH2 0xDB PUSH0 DUP4 ADD DUP5 PUSH2 0xB9 JUMP JUMPDEST SWAP3 SWAP2 POP POP JUMP JUMPDEST PUSH0 PUSH16 0xFFFFFFFFFFFFFFFFFFFFFFFFFFFFFFFF DUP3 AND SWAP1 POP SWAP2 SWAP1 POP JUMP JUMPDEST PUSH2 0x105 DUP2 PUSH2 0xE1 JUMP JUMPDEST DUP3 MSTORE POP POP JUMP JUMPDEST PUSH0 PUSH1 0x20 DUP3 ADD SWAP1 POP PUSH2 0x11E PUSH0 DUP4 ADD DUP5 PUSH2 0xFC JUMP JUMPDEST SWAP3 SWAP2 POP POP JUMP JUMPDEST PUSH32 0x4E487B7100000000000000000000000000000000000000000000000000000000 PUSH0 MSTORE PUSH1 0x11 PUSH1 0x4 MSTORE PUSH1 0x24 PUSH0 REVERT JUMPDEST PUSH0 PUSH2 0x15B DUP3 PUSH2 0xAD JUMP JUMPDEST SWAP2 POP PUSH2 0x166 DUP4 PUSH2 0xAD JUMP JUMPDEST SWAP3 POP DUP3 DUP3 ADD SWAP1 POP PUSH1 0xFF DUP2 GT ISZERO PUSH2 0x17F JUMPI PUSH2 0x17E PUSH2 0x124 JUMP JUMPDEST JUMPDEST SWAP3 SWAP2 POP POP JUMP JUMPDEST PUSH0 PUSH2 0x18F DUP3 PUSH2 0xE1 JUMP JUMPDEST SWAP2 POP PUSH2 0x19A DUP4 PUSH2 0xE1 JUMP JUMPDEST SWAP3 POP DUP3 DUP3 ADD SWAP1 POP PUSH16 0xFFFFFFFFFFFFFFFFFFFFFFFFFFFFFFFF DUP2 GT ISZERO PUSH2 0x1C2 JUMPI PUSH2 0x1C1 PUSH2 0x124 JUMP JUMPDEST JUMPDEST SWAP3 SWAP2 POP POP JUMP INVALID LOG2 PUSH5 0x6970667358 0x22 SLT KECCAK256 DUP8 CALLDATASIZE 0xEF PUSH11 0xD190E25C10A0BCC994A6CD SWAP7 0xCA 0x4C PUSH9 0x4A45675B964D2F62CE 0x1E SAR SWAP9 0xAA PUSH5 0x736F6C6343 STOP ADDMOD BYTE STOP CALLER "
				},
				"gasEstimates": {
					"creation": {
						"codeDepositCost": "102000",
						"executionCost": "145",
						"totalCost": "102145"
					},
					"external": {
						"calculatorInt()": "infinite",
						"overflow()": "infinite"
					}
				},
				"methodIdentifiers": {
					"calculatorInt()": "f7a380fb",
					"overflow()": "004264c3"
				}
			},
			"storageLayout": {
				"storage": [],
				"types": null
			},
			"userdoc": {
				"kind": "user",
				"methods": {},
				"version": 1
			}
		}
	}
}